:020000040800F2
:10000000203E0020D1060008A5020008A702000833
:10001000AB020008AF020008B302000800000000B5
:10002000000000000000000000000000B70200080F
:10003000B902000800000000BB020008BD02000871
:10004000EB060008EB060008EB060008EB060008CC
:10005000EB060008EB060008EB060008EB060008BC
:10006000EB060008EB060008EB060008EB060008AC
:10007000EB060008EB060008EB060008EB0600089C
:10008000EB060008EB060008EB060008EB0600088C
:10009000EB060008EB060008EB060008EB0600087C
:1000A000EB060008EB060008EB060008EB0600086C
:1000B000EB060008EB060008EB060008EB0600085C
:1000C000EB060008EB060008EB060008EB0600084C
:1000D000EB06000845060008EB060008EB060008E2
:1000E000EB060008EB060008EB060008EB0600082C
:1000F000EB060008EB060008EB060008EB0600081C
:10010000EB060008EB060008EB060008EB0600080B
:10011000EB060008EB060008EB060008EB060008FB
:10012000EB060008EB060008EB060008EB060008EB
:1001300000F002F800F03AF80AA090E8000C8244BF
:100140008344AAF10107DA4501D100F02FF8AFF29C
:10015000090EBAE80F0013F0010F18BFFB1A43F0A5
:1001600001031847D80E0200F80E0200103A24BF0F
:1001700078C878C1FAD8520724BF30C830C144BF0C
:1001800004680C607047000000230024002500264E
:10019000103A28BF78C1FBD8520728BF30C148BFEA
:1001A0000B6070471FB51FBD10B510BD01F057FDA6
:1001B0001146FFF7F7FF00F009F801F075FD03B4F1
:1001C000FFF7F2FF03BC00F0E3F9000086B000F097
:1001D00065F900F0D7F901F095FC56E001F09FF8C1
:1001E00001F070F901F02DF9022000F0B6F901F0EC
:1001F00096F8264801F043F901F023F9022000F0B7
:10020000ACF901F0A9F8224801F039F901F019F927
:10021000022000F0A2F901F0EBF81E4801F0D4FB37
:1002200001F00FF9022000F098F901F078F81A486F
:1002300001F08CF9002416E0402120220523174804
:1002400000EB0420CDE903320591029013481449D4
:10025000034600F58072CDE900107821642001F09A
:100260001BFB601CC4B2062CE6DB01F0EAF802209E
:1002700000F073F901F053F801F024F901F0E1F80E
:10028000022000F06AF900BFFEE7A7E7BC280008DB
:100290007C590008BCAE01083C8A0008BC1C000860
:1002A000BC260008704700BFFEE700BFFEE700BFA6
:1002B000FEE700BFFEE770477047704770470000D9
:1002C0000CB50020019000906B48006840F480302D
:1002D0006949086000BF6848006800F40030009079
:1002E0000198401C0190009818B90198B0F5A06FD2
:1002F000F1D16148006810F4003F02D00120009065
:1003000001E0002000900098012842D15B4800687D
:1003100040F01000594908600846006820F00300CA
:1003200008600846006840F00200086052484068D3
:10033000514948600846406848600846406840F4B3
:10034000806048600846406820F47C104860084699
:10035000406840F4E81048600846006840F080704B
:10036000086000BF4448006810F0007FFAD042489F
:10037000406820F00300404948600846406840F06B
:100380000200486000BF3C48406800F00C000828AC
:10039000F9D10CBD10B5FFF793FF10BD10B536486D
:1003A000006840F00100344908600846406834495C
:1003B00008403149486008460068324908402E49E3
:1003C00008600846006820F48020086008464068FD
:1003D00020F4FE0048604FF41F008860FFF7DAFF4A
:1003E0004FF000602849086010BD10B500210020C2
:1003F0000022214B5B6803F00C0121B1042906D0D7
:10040000082928D107E0214B214C236027E01F4B0E
:100410001F4C236023E0184B5B6803F47010164BED
:100420005B6803F48032022303EB904022B9194B3E
:100430004343174C23600DE00F4B5B6813F4003F00
:1004400004D0144B4343124C236003E00F4B43434F
:100450000F4C236003E00D4B0D4C236000BF00BF29
:10046000054B5B68C3F303130B4CE15C084B1B6843
:10047000CB40074C236010BD00100240002002401A
:100480000000FFF8FFFFF6FE08ED00E000127A0022
:100490000000002000093D000400002010B56FF0AE
:1004A000040000F085F9334800683349B0FBF1F0EF
:1004B000324908700846007800EB4001C1EBC010DB
:1004C0004FF6FF7101EAC0002D49088010BD0146BA
:1004D0002A4A12784A434FF0E0235A6100229A6177
:1004E0001A46126942F001021A6100BF4FF0E02281
:1004F000106910F0010F02D010F4803FF6D04FF0D9
:10050000E022126922F001024FF0E0231A6100227A
:100510009A61704701461A4A12884A434FF0E02315
:100520005A6100229A611A46126942F001021A6168
:1005300000BF4FF0E022106910F0010F02D010F45C
:10054000803FF6D04FF0E022126922F001024FF016
:10055000E0231A6100229A61704730B504460025F5
:1005600005E04FF47A70FFF7D5FF681C85B2A5420D
:10057000F7DB30BD0000002000127A0014000020DC
:100580001600002010B54FF4A06000F0C1F810BDB7
:10059000014600BF704700BF494A128812F0400F61
:1005A000FAD0C2B2464B1B1D1A80704710B586B0F8
:1005B0000446012144F2050000F02EFC4FF40070C7
:1005C000ADF8140003208DF8160018208DF81700E0
:1005D00005A93C4800F06AF94FF48060ADF81400BA
:1005E00004208DF8170005A9364800F05FF9252092
:1005F0008DF8000003208DF801008DF80200012025
:100600008DF80300684600F088F801940020ADF8EA
:100610000800ADF80A00ADF80C00ADF810000C2091
:10062000ADF80E0001A9264800F0A1FC012240F21D
:100630002551234800F033FD0121214800F023FD1E
:1006400006B010BD10B540F225511D4800F00CFE5B
:1006500010B31B4800F088FDC4B21B48008810F49A
:10066000004F2BD11848008810F4804F0CD00A2C72
:1006700003D000201449088020E01348008840F48B
:1006800000401149088019E00D2C06D10E48008861
:1006900040F480400C49088010E00B480088C0F30B
:1006A0000D000A490C5408480088401C064908807F
:1006B00008460088C72801DD0020088010BD000022
:1006C00000380140000801401800002038000020D8
:1006D0000948804709480047FEE7FEE7FEE7FEE7D6
:1006E000FEE7FEE7FEE7FEE7FEE7FEE70448054912
:1006F000054A064B704700009D03000831010008C1
:1007000020380020203E0020203A0020203A0020FF
:1007100031490143314A1160704770B5002100230F
:100720000F22C4780CB32D4C246804F4E064C4F5A3
:10073000E064210AC1F10403CA40447804FA03F1D9
:100740008478144021430901254C0678A15504788A
:1007500004F01F050124AC4005786D114FF0E02630
:1007600006EB8505C5F8004109E0047804F01F0593
:100770000124AC401B4D0678761145F8264070BD2B
:10078000194A0A400243154B1B1F1A60704739B1C2
:10079000124A121D12680243104B1B1D1A6006E01C
:1007A0000E4A121D126882430C4B1B1D1A607047C3
:1007B000042808D14FF0E021096941F004014FF00D
:1007C000E022116107E04FF0E021096921F0040106
:1007D0004FF0E022116170470000FA050CED00E0D7
:1007E00000E400E080E100E080FFFF1F10B5044658
:1007F000CA48844208D10121042000F027FB0021CF
:10080000042000F023FB46E0C548844208D10121C2
:10081000082000F01BFB0021082000F017FB3AE045
:10082000C048844208D10121102000F00FFB0021B4
:10083000102000F00BFB2EE0BB48844208D10121C0
:10084000202000F003FB0021202000F0FFFA22E02E
:10085000B648844208D10121402000F0F7FA002177
:10086000402000F0F3FA16E0B148844208D101219B
:10087000802000F0EBFA0021802000F0E7FA0AE087
:10088000AC48844207D10121801500F0DFFA002135
:10089000A01500F0DBFA10BD10B50121084600F0EC
:1008A000D5FA0021012000F0D1FA10BD2DE9F04168
:1008B000024600250026002000230024002791F88E
:1008C00003C00CF00F0591F803C01CF0100F03D00B
:1008D00091F802C04CEA050591F800C0BCF1000F88
:1008E00031D0146800202BE04FF0010C0CFA00F31B
:1008F000B1F800C00CEA03069E4220D183004FF0FD
:100900000F0C0CFA03F7BC4305FA03FC4CEA040491
:1009100091F803C0BCF1280F06D14FF0010C0CFA7E
:1009200000FCC2F814C00AE091F803C0BCF1480F03
:1009300005D14FF0010C0CFA00FCC2F810C0401CAD
:100940000828D1D31460B1F800C0BCF1FF0F34DD2A
:10095000546800202EE000F1080C4FF0010808FA5E
:100960000CF3B1F800C00CEA03069E4221D18300CB
:100970004FF00F0C0CFA03F7BC4305FA03FC4CEAEA
:10098000040491F803C0BCF1280F05D100F1080C54
:1009900008FA0CF8C2F8148091F803C0BCF1480FB3
:1009A00007D100F1080C4FF0010808FA0CF8C2F862
:1009B0001080401C0828CED35460BDE8F0814FF66B
:1009C000FF710180022181700421C17070470246CD
:1009D000002093680B4201D0012000E00020704706
:1009E0000146886880B2704702460020D3680B42F7
:1009F00001D0012000E0002070470146C86880B2A5
:100A0000704701617047416170470AB1016100E0C0
:100A100041617047C16070474FF480320A43826180
:100A20008161826182698269704702460020424B7F
:100A300018684FF68073184040EA021008433E4B96
:100A4000186070473D49C8617047F0B50A460023F9
:100A500000240021002500F00046B6F1004F02D12D
:100A6000354EF16901E0344E7168C0F3034583B23D
:100A700000F44016B6F5401F08D121F070612E4EEB
:100A8000766826F070662C4F7E6012E000F48016C7
:100A9000B6F5801F06D1032606FA05F4A14341F0FE
:100AA000706106E0460D360103FA06F6B14341F0E7
:100AB000706122B1460D360103FA06F6314300F0AB
:100AC0000046B6F1004F02D11B4EF16101E01A4E13
:100AD0007160F0BD30B500228B071C0F0F2303FAA5
:100AE00004F2154B08338C1053F824309343124C06
:100AF00008348D1044F8253023468C1053F82430E8
:100B00008C07240F00FA04F423430B4C08348D1097
:100B100044F8253030BD0A4908607047000801409C
:100B2000000C014000100140001401400018014079
:100B3000001C014000200140000001400000204254
:100B4000DC002042DD48006840F00100DB4908601D
:100B500008464068DA490840D849486008460068B5
:100B6000D8490840D54908600846006820F480202C
:100B700008600846406820F4FE0048604FF41F00FB
:100B800088607047CD49096821F48031CB4A1160F3
:100B90001146096821F480211160B0F5803F03D02F
:100BA000B0F5802F0ED106E0C449096841F48031C8
:100BB000C24A116007E0C149096841F4A021BF4A57
:100BC000116000E000BF00BF704710B50146002271
:100BD000002300204A11012A02D1B84C236806E004
:100BE000022A02D1B54C236A01E0B44C636A01F0D9
:100BF0001F02012494401C4201D0012000E000208B
:100C000010BD38B5002000900024002500BF312021
:100C1000FFF7DBFF05460098401C00900098B0F5F8
:100C2000A06F01D0002DF2D03120FFF7CEFF08B128
:100C3000012400E00024204638BD014600209F4AE0
:100C4000106820F0F80040EAC100106070479E492B
:100C50000860704702460020984B586820F47C10CA
:100C600042EA01031843954B58607047964908665D
:100C7000704701460020914A506820F00300084365
:100C8000506070478D48406800F00C007047014686
:100C900000208A4A506820F0F000084350607047F6
:100CA00001460020854A506820F4E0600843506007
:100CB000704701460020814A506820F4605040EAA5
:100CC000C1005060704729B17C4A527A02437B4B85
:100CD0005A7204E0794A527A8243784B5A727047CA
:100CE0007A490860704701460020744A506820F431
:100CF00040400843506070470021754A11706F4AA8
:100D000082F82010012802D0042808D103E0012134
:100D10006F4A117004E005216D4A117000E000BFB8
:100D200000BF70476B49086070476449096A014316
:100D3000624A11627047674944390860704730B5AC
:100D400000210022002400235C4D6D6805F00C0199
:100D500021B1042905D0082923D105E05E4D0560A5
:100D600022E05D4D05601FE0544D6D6805F4701282
:100D7000524D6D6805F48034022505EB92421CB992
:100D8000564D554305600BE04C4D6D6815F4003F22
:100D900003D0524D5543056002E04F4D5543056069
:100DA00002E04D4D056000BF00BF444D6D6805F089
:100DB000F00109094A4D6B5C0568DD4045603F4D17
:100DC0006D6805F4E061090A454D6B5C4568DD40DE
:100DD00085603A4D6D6805F46051C90A404D6B5C01
:100DE0004568DD40C560354D6D6805F44041890BAF
:100DF0003C4D6B5CC568B5FBF3F5056130BD29B1B1
:100E00002E4A526902432D4B5A6104E02B4A526923
:100E100082432A4B5A61704729B1284A926902439A
:100E2000264B9A6104E0254A92698243234B9A61DA
:100E3000704729B1214AD2690243204BDA6104E0AC
:100E40001E4AD26982431D4BDA61704729B11B4AA1
:100E5000D2680243194BDA6004E0184AD268824330
:100E6000164BDA60704729B1144A12690243134BDA
:100E70001A6104E0114A12698243104B1A617047EB
:100E800014494039086070470F49C86470470B49DE
:100E9000C87170470948406A40F08070074948624D
:100EA000704701460020054A92680A4201D001209D
:100EB00000E000207047014988727047001002402E
:100EC0000000FFF8FFFFF6FE00004242D800424259
:100ED000201002408004424200127A0000093D00C6
:100EE000200000203000002010B50446FB4884425A
:100EF00009D101218803FFF7A9FF00214FF48040A9
:100F0000FFF7A4FF32E0F648844209D101214804EA
:100F1000FFF7A9FF00214FF40030FFF7A4FF25E001
:100F2000F048844209D101218804FFF79CFF002189
:100F30004FF48020FFF797FF18E0EB48844209D177
:100F40000121C804FFF78FFF00214FF40020FFF7B5
:100F50008AFF0BE0E548844208D101210805FFF72C
:100F600082FF00214FF48010FFF77DFF10BD2DE9B7
:100F7000F04786B005460E460024A24600BFA146B3
:100F80000027B08900B100BF2F462C8A4CF6FF70B5
:100F90000440F08804432C82AC894EF6F3100440E0
:100FA000B08831890843718908430443AC81AC8A15
:100FB0004FF6FF400440B0890443AC8201A8FFF71C
:100FC000BEFEC648874202D1DDF810A001E0DDF880
:100FD0000CA0A88910F4004F08D00AEBCA0000EB5F
:100FE0000A1031684900B0FBF1F807E00AEBCA00CB
:100FF00000EB0A1031688900B0FBF1F86420B8FBFF
:10100000F0F004012009642101FB1089A88910F483
:10101000004F08D0322000EBC900B0FBF1F000F027
:101020000700044308E0322000EB09106421B0FB04
:10103000F1F000F00F0004432C8106B0BDE8F0870A
:101040004FF41651016000218180C18001810C2183
:10105000418100218181704710B502460020108A2D
:101060004FF2FF0318400B884C8823438C8823439E
:10107000CC8823431843108210BD00210180418099
:101080008180C180704721B1828942F400528281FF
:1010900004E082894DF6FF731A4082817047F0B5F3
:1010A00003460024002600250020A1F510676A3FB2
:1010B00000D100BF1846C1F3421401F01F060127FA
:1010C00007FA06F5012C01D10C3004E0022C01D105
:1010D000103000E014301AB107682F43076002E0B7
:1010E0000768AF430760F0BD1AB1838A0B43838260
:1010F00002E0838A8B4383827047028A4FF6F07343
:101100001A400282028A0A430282704782894FF2A1
:10111000FF731A40828182890A438281704721B11C
:10112000828942F00202828104E082894FF6FD73D7
:101130001A4082817047028A4FF6DF731A4002829A
:10114000028A0A430282704721B1028A42F4804235
:10115000028204E0028A4BF6FF731A400282704753
:10116000C1F308028280704701468888C0F30800F6
:101170007047818941F0010181817047028BD2B2B1
:101180000283028B42EA012202837047028B02F43F
:101190007F420283028B0A430283704721B1828A15
:1011A00042F02002828204E0828A4FF6DF731A4006
:1011B0008282704721B1828A42F01002828204E06A
:1011C000828A4FF6EF731A408282704721B1828A79
:1011D00042F00802828204E0828A4FF6F7731A40D6
:1011E0008282704721B1828942F40042828103E009
:1011F0008289C2F30E028281704721B1828A42F451
:101200000062828204E0828A4FF2FF731A40828277
:101210007047828A4FF6FB731A408282828A0A43A1
:101220008282704721B1828A42F00202828204E007
:10123000828A4FF6FD731A40828270470246002070
:10124000B1F5007F00D100BF13880B4201D001200F
:1012500000E00020704701F40072B2F5007F00D179
:1012600000BFCA430280704770B5024600240023C5
:1012700000250020A1F510666A3E00D100BFC1F331
:10128000421501F01F03012606FA03F3012D02D1D6
:101290009689334006E0022D02D1168A334001E0E0
:1012A000968A33400C12012606FA04F4168834405C
:1012B00013B10CB1012000E0002070BD10B5002278
:1012C0000023A1F510646A3C00D100BF0A1201247A
:1012D0009440A3B2DC43048010BD000000380140FC
:1012E0000044004000480040004C004000500040D6
:1012F00006E042F6E06100BF0A00A1F10101FBD166
:101300000200A0F10100F4D1704710B500BF4FF406
:101310000051FE48FFF75BFB0028F8D010BD10B568
:101320004FF48041F948FFF76EFB0A20FFF7E0FF1A
:101330004FF48041F548FFF764FB0A20FFF7D8FF20
:10134000042000F053FCFFF7E0FF502000F04EFCBB
:10135000972000F063FC10BD10B54FF48041EB48BE
:10136000FFF751FB0A20FFF7C3FF4FF48041E74826
:10137000FFF747FB0A20FFF7BBFF042000F036FC15
:10138000FFF7C3FFE02000F031FC022000F046FC34
:10139000E52000F02BFC5F2000F040FC10BD10B5F4
:1013A0004FF48041D948FFF72EFB0A20FFF7A0FF3A
:1013B0004FF48041D548FFF724FB0A20FFF798FF40
:1013C000042000F013FCFFF7A0FFE02000F00EFC6B
:1013D000022000F023FCE52000F008FC6E2000F065
:1013E0001DFC502000F002FCD72000F017FC10BDBF
:1013F00010B54FF48041C548FFF705FB0A20FFF701
:1014000077FF4FF48041C148FFF7FBFA0A20FFF74E
:101410006FFF002000F0EAFB1F2000F0FFFB04201C
:1014200000F0E4FBFFF771FFE02000F0DFFB02209B
:1014300000F0F4FBE52000F0D9FB5A2000F0EEFBB1
:1014400010BD10B5022000F0D1FBFFF75EFF0720B2
:1014500000F0CCFBA52000F0E1FB10BD10B5022090
:1014600000F0C4FBFFF751FF10BD10B5122000F0D3
:10147000BDFB0120FFF73CFFFFF747FF10BD70B534
:101480000546102000F0B2FB002404E0A049085DEE
:1014900000F0C4FB641CB4F5435FF7D3132000F0E5
:1014A000A5FB002406E0285D00F0B8FB285D984904
:1014B0000855641CB4F5435FF5D3FFF7D6FFFFF77B
:1014C000CDFF70BD10B5102000F090FB002404E0AB
:1014D0008F49085D00F0A2FB641CB4F5435FF7D3AD
:1014E000132000F083FB002406E0FF2000F096FBB1
:1014F000FF2087490855641CB4F5435FF5D3FFF717
:10150000B4FFFFF7ABFF10BD10B5102000F06EFB6D
:10151000002404E07E49085D00F080FB641CB4F503
:10152000435FF7D3132000F061FB002406E00020A6
:1015300000F074FB002076490855641CB4F5435F45
:10154000F5D3FFF792FFFFF789FF10BD70B5054691
:10155000102000F04BFB002404E06D49085D00F012
:101560005DFB641CB4F5435FF7D3132000F03EFB32
:10157000002406E0285D00F051FB285D6449085511
:10158000641CB4F5435FF5D3FFF76FFFFFF766FF09
:1015900070BD2DE9F05F05460F4691461E46DDF809
:1015A000288005F007002D1A05EB0800A0F1010BBB
:1015B000B819A0F1010AFFF7F2FE912000F016FB26
:1015C000902000F013FBE8B200F028FB0BF0FF00C6
:1015D00000F024FBC7F3072000F020FBF8B200F076
:1015E0001DFBCAF3072000F019FB0AF0FF0000F012
:1015F00015FB012000F012FB46480078012811D1AC
:10160000002044490870102000F0F0FA002403E0A4
:10161000FF2000F003FB641C06FB08F0B4EBD00FC6
:10162000F6D30EE0102000F0E1FA002404E03A497D
:10163000085D00F0F3FA641C06FB08F0B4EBD00F71
:10164000F5D3132000F0D2FA002408E019F80400C2
:1016500000F0E4FA19F804002F490855641C06FB51
:1016600008F0B4EBD00FF1D3FFF7FFFEFFF7F6FE63
:10167000BDE8F09F70B50546FFF791FE102000F021
:10168000B5FA002404E02249085D00F0C7FA641CA2
:10169000B4F5435FF7D3132000F0A8FA002406E066
:1016A000285D00F0BBFA285D19490855641CB4F5A3
:1016B000435FF5D3FFF7D9FEFFF7D0FE70BD2DE9EC
:1016C000FC5F0746884691469A46DDF830B0DDE972
:1016D000105607F007003F1AB819401E01900F98E6
:1016E00005FB0080401E0090FFF759FE912000F09E
:1016F0007DFA902000F07AFAF8B200F08FFA0199A2
:10170000C8B200F08BFAC8F3072007E000180140C8
:101710000001002034000020C031002000F07EFADB
:1017200008F0FF0000F07AFA0098C0F3072000F0FC
:1017300075FA0099C8B200F071FA012000F06EFA53
:10174000E8480078012813D10020E64908701020ED
:1017500000F04CFA002403E0FF2000F05FFA641C64
:1017600005FB06F00F994843B4EBD00FF4D33EE0ED
:10177000102000F03BFA002404E0DB49085D00F093
:101780004DFA641C05FB06F0B4EBD00FF5D3002432
:1017900004E0D649085D00F041FA641C05FB06F040
:1017A000B4EBD00FF5D3002404E0D149085D00F07C
:1017B00035FA641C05FB06F0B4EBD00FF5D300241A
:1017C00004E0CC49085D00F029FA641C05FB06F032
:1017D000B4EBD00FF5D3002404E0C749085D00F056
:1017E0001DFA641C05FB06F0B4EBD00FF5D31320F3
:1017F00000F0FCF9002408E019F8040000F00EFAEB
:1018000019F80400B8490855641C05FB06F0B4EB50
:10181000D00FF1D3002408E01AF8040000F0FEF91C
:101820001AF80400B1490855641C05FB06F0B4EB36
:10183000D00FF1D3002408E01BF8040000F0EEF90B
:101840001BF80400AA490855641C05FB06F0B4EB1C
:10185000D00FF1D3002408E00D99085D00F0DEF907
:101860000D98005DA3490855641C05FB06F0B4EB18
:10187000D00FF1D3002408E00E99085D00F0CEF9F6
:101880000E98005D9C490855641C05FB06F0B4EBFE
:10189000D00FF1D3BDE8FC9F2DE9FF4F87B0044680
:1018A0000D46164615AF97E8800F02A8A0E8000F76
:1018B0001498CDE900073246294620460A9BFFF7D7
:1018C000FEFEFFF7D2FDFFF7C9FD0BB0BDE8F08FBC
:1018D00010B54FF480418948FFF795F80A20FFF7CB
:1018E00007FD4FF480418548FFF78BF80A20FFF78A
:1018F000FFFC002000F07AF91B2000F08FF9042093
:1019000000F074F94FF49670FFF7F2FCFFF7FDFC5E
:10191000502000F06BF9972000F080F910BD10B551
:101920004FF480417548FFF76EF80A20FFF7E0FC9E
:101930004FF480417148FFF764F80A20FFF7D8FCA4
:10194000002000F053F9132000F068F9042000F0A3
:101950004DF9FFF7DAFC502000F048F9972000F02D
:101960005DF910BD2DE9F04107461E264FF4D078F1
:10197000102000F03BF900250BE0002406E005FBF9
:1019800006415F4A505C00F049F9641CB442F6D34A
:101990006D1C4545F1D3132000F028F900250DE01A
:1019A000002408E005FB0641785C00F037F9385D5B
:1019B00053490855641CB442F4D36D1C4545EFD31C
:1019C000FFF753FDBDE8F0812DE9F0478246102076
:1019D00000F00CF9002738E0002400252FE005EB8B
:1019E00047001AF800904FF0000824E009F0C00604
:1019F000C02E02D144F0010409E006B907E0802EB0
:101A000002D144F0010402E0402E00D100BF2DB904
:101A10004FEA89604FEA10696006040E012D08D173
:101A2000B8F1030F05D04FEA89604FEA10696006EC
:101A3000040E08F10108B8F1040FD7D36D1C022D74
:101A4000CDD3204600F0EAF87F1CB7F5435FC3D33F
:101A5000132000F0CBF8002737E0002400252EE00B
:101A600005EB47001AF800904FF0000823E009F05A
:101A7000C006C02E02D144F0010408E006B906E019
:101A8000802E00D103E0402E01D144F001042DB995
:101A90004FEA89604FEA10696006040E012D08D1F3
:101AA000B8F1030F05D04FEA89604FEA106960066C
:101AB000040E08F10108B8F1040FD8D36D1C022DF3
:101AC000CED3204600F0AAF87F1CB7F5435FC4D3FD
:101AD000122000F08BF80120FFF70AFCFFF715FC3D
:101AE000BDE8F08734000020C0320020C033002061
:101AF000C0340020C0350020C0360020001801404E
:101B00000001002008B501216020FFF785F94FF49E
:101B1000E060ADF8000010208DF8030002208DF881
:101B2000020069464948FEF7C1FE4FF44040ADF857
:101B3000000010208DF8030002208DF80200694695
:101B40004348FEF7B3FE4FF40050ADF800004820C4
:101B50008DF8030002208DF8020069463C48FEF72C
:101B6000A5FE4FF48050ADF8000010208DF8030062
:101B700002208DF8020069463548FEF797FE08BD41
:101B800000BF0100A0F10102D0B2FAD1704770B5D8
:101B900004460120FFF7F4FF002524E04FF4007114
:101BA0002A48FEF730FF0120FFF7EAFF14F0800F0C
:101BB00005D04FF480612548FEF723FF04E04FF481
:101BC00080612248FEF71FFF6006040E0120FFF728
:101BD000D7FF4FF400711D48FEF713FF0120FFF7F8
:101BE000CFFF681CC5B2082DD8DB70BD10B5044608
:101BF0000120FFF7C5FF4FF480711448FEF703FF83
:101C00004FF400411248FEF7FEFE2046FFF7BFFFEB
:101C10004FF480710D48FEF7F4FE10BD10B5044678
:101C20000120FFF7ADFF4FF480710848FEF7EBFE8F
:101C30004FF400410648FEF7E4FE2046FFF7A7FFF9
:101C40004FF480710148FEF7DCFE10BD0014014026
:101C500000180140704770477047704770477546DD
:101C600000F028F8AE4605006946534620F007000C
:101C7000854618B020B5FEF739FDBDE820404FF08D
:101C800000064FF000074FF000084FF0000B21F066
:101C90000701AC46ACE8C009ACE8C009ACE8C00933
:101CA000ACE8C0098D4670470446AFF3008020467B
:101CB000FEF785FA00487047C0370020FFFFFFFF9E
:101CC000FFFFFFFFFFFFFFFFFFFFFFFFFFFFFFE043
:101CD00003FFFFFFFFFFFC00001FFFFFFFFFE0000F
:101CE0000003FFFFFFFF80000000FFFFFFFE00007A
:101CF00000003FFFFFFC000000001FFFFFF8000096
:101D000000000FFFFFF003FFFFE007FFFFE03FFFD2
:101D1000FFFE03FFFFE0FFFFFFFF83FFFFC1FFFFA9
:101D2000FFFFC1FFFFC7FFFFFFFFF1FFFFC7FFFF7F
:101D3000FFFFF1FFFFCFFFFFFFFFF9FFFFCFFFFF27
:101D4000FFFFF9FFFFC7FFFFFFFFF1FFFFC7FFFF27
:101D5000FFFFF1FFFFC3FFFFFFFFE1FFFFE0FFFF1A
:101D6000FFFF83FFFFE03FFFFFFE03FFFFF003FFE6
:101D7000FFC007FFFFF8000000000FFFFFFC00009E
:101D800000001FFFFFFE000000003FFFFFFF80007C
:101D90000000FFFFFFFFE0000003FFFFFFFFFE006A
:101DA000003FFFFFFFFFFFFFFFFFFFFFFFFFFFFF02
:101DB000FFFFFFFFFFFFFFFFFFFFFFFFFFFFFFFF33
:101DC000FFFFFFFFFFFFFFFFFFFFFFFFFFFFFFFF23
:101DD000FFFFFFFFFFFFFFFFFFFFFFFFFFFFFFFF13
:101DE000FFFFFFFFFFFFFFFFFFFFFFFFFFFCFFFF06
:101DF000FFFFF3FFFFFCFFFFFFFFF3FFFFFCFFFF11
:101E0000FFFFF3FFFFFCFFFFFFFFF3FFFFFCFFFF00
:101E1000FFFFF3FFFFFCFFFFFFFFF3FFFFF8FFFFF4
:101E2000FFFFE3FFFFF80000000003FFFFF00000EA
:101E3000000003FFFFF00000000003FFFFC00000F0
:101E4000000003FFFFC00000000003FFFFC0000010
:101E5000000003FFFFFFFFFFFFFFC3FFFFFFFFFFC8
:101E6000FFFFE3FFFFFFFFFFFFFFF3FFFFFFFFFFAA
:101E7000FFFFF3FFFFFFFFFFFFFFF3FFFFFFFFFF8A
:101E8000FFFFF3FFFFFFFFFFFFFFF3FFFFFFFFFF7A
:101E9000FFFFFFFFFFFFFFFFFFFFFFFFFFFFFFFF52
:101EA000FFFFFFFFFFFFFFFFFFFFFFFFFFFFFFFF42
:101EB000FFFFFFFFFFFFFFFFFFFFFFFFFFFFFFFF32
:101EC000FFFFFFFFFFFFFFFFFFFFFFFFFFFFFFFF22
:101ED000FFFFE3FFFFFFC1FFFFFF83FFFFFF00FFE7
:101EE000FFFE03FFFFFC007FFFFC03FFFFF8007F06
:101EF000FFF803FFFFF0007FFFF043FFFFF0007FDC
:101F0000FFE1C3FFFFE1F07FFF83C3FFFFE3FFFFBC
:101F1000FF07C3FFFFE7FFFFFE0FC3FFFFC7FFFF82
:101F2000FC1FC3FFFFCFFFFFF83FC3FFFFCFFFFF43
:101F3000F07FC3FFFFCFFFFFE0FFC3FFFFCFFFFF37
:101F4000C1FFC3FFFFCFFFFF83FFC3FFFFC7FFFF3B
:101F500007FFC3FFFFC7FFFC0FFFC3FFFFC3FFF077
:101F60001FFFC3FFFFE0FFC03FFFC3FFFFE0000014
:101F70007FFF83FFFFF00000FFFF83FFFFF0000102
:101F8000FFFE03FFFFF80007FFF003FFFFFC000F59
:101F9000FFE003FFFFFF007FFFE00FFFFFFFFFFFFA
:101FA000FFE7FFFFFFFFFFFFFFFFFFFFFFFFFFFF59
:101FB000FFFFFFFFFFFFFFFFFFFFFFFFFFFFFFFF31
:101FC000FFFFFFFFFFFFFFFFFFFFFFFFFFFFFFFF21
:101FD000FFFFFFFFFFFFFFFFFFF87FFFFFFE07FF91
:101FE000FFF01FFFFFFC03FFFFE00FFFFFF803FF01
:101FF000FFE007FFFFF003FFFFE007FFFFE003FF45
:10200000FFE003FFFFE3C3FFFFF0E3FFFFE7FFFF96
:10201000FFFFF1FFFFC7FFFCFFFFF1FFFFCFFFFC5A
:10202000FFFFF9FFFFCFFFFCFFFFF9FFFFCFFFFC32
:10203000FFFFF9FFFFCFFFFCFFFFF9FFFFCFFFF826
:102040007FFFF9FFFFC7FFF87FFFF1FFFFC3FFF03E
:102050007FFFF1FFFFC1FFE23FFFE1FFFFE07F8273
:102060001FFFC3FFFFE000030FFF83FFFFF0000728
:1020700001FC07FFFFF8000F800007FFFFFC001FB7
:1020800080000FFFFFFE003FC0001FFFFFFF80FF2B
:10209000F0003FFFFFFFFFFFF800FFFFFFFFFFFF24
:1020A000FF07FFFFFFFFFFFFFFFFFFFFFFFFFFFF38
:1020B000FFFFFFFFFFFFFFFFFFFFFFFFFFFFFFFF30
:1020C000FFFFFFFFFFFFFFFFFF7FFFFFFFFFFFFFA0
:1020D000FC7FFFFFFFFFFFFFF87FFFFFFFFFFFFF1A
:1020E000E07FFFFFFFFFFFFF807FFFFFFFFFFFFF9E
:1020F000027FFFFFFFFFFFFC0E7FFFFFFFFFFFF8E8
:102100003E7FFFFFFFFFFFE07E7FFFFFFFFFFF81BE
:10211000FE7FFFFFFFFFFF03FE7FFFFFFFFFFC0FC0
:10212000FE7FF3FFFFFFF83FFE7FF3FFFFFFE07F3F
:10213000FE7FF3FFFFFFC1FFFE7FF3FFFFFF03FF03
:10214000FE7FF3FFFFFC0FFFFE7FF3FFFFF80000B1
:10215000000003FFFFE00000000003FFFFE00000BD
:10216000000003FFFFE00000000003FFFFE00000AD
:10217000000003FFFFE00000000003FFFFFFFFFF80
:10218000FE7FF3FFFFFFFFFFFE7FF3FFFFFFFFFF79
:10219000FE7FF3FFFFFFFFFFFE7FF3FFFFFFFFFF69
:1021A000FE7FF3FFFFFFFFFFFE7FF3FFFFFFFFFF59
:1021B000FE7FFFFFFFFFFFFFFFFFFFFFFFFFFFFFB0
:1021C000FFFFFFFFFFFFFFFFFFFFFFFFFFFFFFFF1F
:1021D000FFFFFFFFFFFFFFFFFFF07FFFFFFFFFFF9E
:1021E000FFE03FFFFFFFF0001FC01FFFFFE0000008
:1021F0001FC00FFFFFE000001FC007FFFFE0000C43
:102200001FC003FFFFE1FFF87FE1E3FFFFE1FFF005
:10221000FFFFF3FFFFE1FFF1FFFFF1FFFFE1FFF140
:10222000FFFFF1FFFFE1FFE3FFFFF9FFFFE1FFE346
:10223000FFFFF9FFFFE1FFE3FFFFF9FFFFE1FFE32E
:10224000FFFFF9FFFFE1FFE3FFFFF9FFFFE1FFE120
:10225000FFFFF1FFFFE1FFE1FFFFE1FFFFE1FFE033
:10226000FFFFC3FFFFE1FFF03FFF83FFFFE1FFF050
:102270000FFC03FFFFE1FFF8000007FFFFE1FFF89D
:1022800000000FFFFFE1FFFC00001FFFFFE1FFFF69
:1022900000003FFFFFE3FFFF8000FFFFFFFFFFFFA6
:1022A000F80FFFFFFFFFFFFFFFFFFFFFFFFFFFFF35
:1022B000FFFFFFFFFFFFFFFFFFFFFFFFFFFFFFFF2E
:1022C000FFFFFFFFFFFFFFFFFFFFFFFFFFFFFFF825
:1022D00001FFFFFFFFFFFE000007FFFFFFFFF00011
:1022E0000001FFFFFFFFC00000007FFFFFFF0000B5
:1022F00000001FFFFFFE000000000FFFFFFC0000BA
:10230000000007FFFFF807F81FF807FFFFF03FF096
:102310007FFF03FFFFF0FFE0FFFF83FFFFE1FFE12F
:10232000FFFFE1FFFFE3FFE3FFFFF1FFFFC7FFC395
:10233000FFFFF1FFFFC7FFC7FFFFF9FFFFCFFFC799
:10234000FFFFF9FFFFCFFFC7FFFFF9FFFFCFFFC779
:10235000FFFFF9FFFFCFFFC3FFFFF1FFFFC7FFC183
:10236000FFFFF1FFFFC01FC0FFFFE3FFFFC01FE043
:102370007FFF83FFFFE01FE00FF807FFFFF01FF074
:1023800000000FFFFFF01FF000000FFFFFFC3FFCFD
:1023900000003FFFFFFFFFFE00007FFFFFFFFFFF8A
:1023A000C001FFFFFFFFFFFFFFFFFFFFFFFFFFFF7A
:1023B000FFFFFFFFFFFFFFFFFFFFFFFFFFFFFFFF2D
:1023C000FFFFFFFFFFFFFFFFFFFFFFFFFFFFFFFF1D
:1023D000FFFFFFFFFFFFF3FFFFFFFFFFFFFC03FF18
:1023E000FFFFFFFFFFE003FFFFFFFFFFFFE007FF2F
:1023F000FFFFFFFFFFE03FFFFFFFFFFFFFE07FFF6B
:10240000FFFFFFFFFFE0FFFFFFFFFFFFFFE1FFFF19
:10241000FFFFFFFFFFE1FFFFFFE003FFFFE1FFFF23
:10242000FE0001FFFFE1FFFFF00001FFFFE1FFFF02
:10243000C00001FFFFE1FFFF000001FFFFE1FFFC23
:10244000000001FFFFE1FFE0000003FFFFE1FF806C
:102450000FFFFFFFFFE1FE007FFFFFFFFFE1FC0337
:10246000FFFFFFFFFFE1F01FFFFFFFFFFFE1C07F66
:10247000FFFFFFFFFFE101FFFFFFFFFFFFE007FF9F
:10248000FFFFFFFFFFE01FFFFFFFFFFFFFE07FFFFA
:10249000FFFFFFFFFFE1FFFFFFFFFFFFFFE3FFFF86
:1024A000FFFFFFFFFFFFFFFFFFFFFFFFFFFFFFFF3C
:1024B000FFFFFFFFFFFFFFFFFFFFFFFFFFFFFFFF2C
:1024C000FFFFFFFFFFFFFFFFFFFFFFFFFFFFFFFF1C
:1024D000FF01FFFFFFFF80FFF8007FFFFFFE003FCF
:1024E000F0003FFFFFFC001FE0001FFFFFF8000FA0
:1024F000C0000FFFFFF0000780FE07FFFFE07C0336
:1025000007FF83FFFFE1FF010FFFC3FFFFE3FF8032
:102510003FFFE3FFFFC7FFC07FFFF1FFFFC7FFE003
:102520007FFFF1FFFFCFFFE07FFFF9FFFFCFFFF05D
:102530007FFFF9FFFFCFFFF83FFFF9FFFFCFFFF865
:102540003FFFF9FFFFCFFFF81FFFF9FFFFC7FFFCB9
:102550000FFFF1FFFFC7FFF807FFF1FFFFC3FFF019
:1025600007FFE3FFFFE1FFE101FFE3FFFFE0FF8380
:1025700000FF83FFFFF00007803E07FFFFF000072A
:10258000C00007FFFFF8000FE0000FFFFFFC003F57
:10259000F0001FFFFFFF007FFC007FFFFFFFFFFF3A
:1025A000FF01FFFFFFFFFFFFFFFFFFFFFFFFFFFF39
:1025B000FFFFFFFFFFFFFFFFFFFFFFFFFFFFFFFF2B
:1025C000FFFFFFFFFFFFFFFFFFFFFFFFFFFFF00326
:1025D000FFFFFFFFFFFF80007FFFFFFFFFFE000008
:1025E0003FFF1FFFFFFC00001FFC0FFFFFF8000074
:1025F0000FFC07FFFFF0000007FC03FFFFE03FF8C0
:1026000007FC03FFFFE0FFFF03FC01FFFFE3FFFF09
:1026100083FE01FFFFC7FFFFC3FFF1FFFFC7FFFFFF
:10262000C3FFF9FFFFCFFFFFE3FFF9FFFFCFFFFF7E
:10263000E3FFF9FFFFCFFFFFE3FFF1FFFFCFFFFF56
:10264000C3FFF1FFFFCFFFFFC3FFE3FFFFC7FFFFA4
:1026500087FFC3FFFFC3FFFF07FF03FFFFE1FFFE8D
:102660000FFC07FFFFE07FFC1FE00FFFFFF00FF004
:1026700038001FFFFFF8000000003FFFFFFC0000D4
:1026800000007FFFFFFE00000001FFFFFFFF0000D2
:102690000007FFFFFFFFE000001FFFFFFFFFFC0040
:1026A00001FFFFFFFFFFFFFFFFFFFFFFFFFFFFFF38
:1026B000FFFFFFFFFFFFFFFFFFFFFFFFFFFFFFFF2A
:1026C000FFFFFFFFFFFFFFFFFFFFFFFFFFFFFFFF1A
:1026D000FFFFFFFFFFFFFFFFFFFFFFFFFFFFFFFF0A
:1026E000FFFFFFFFFFFFFFFFFFFFFFFFFFFFFFFFFA
:1026F000FFFFFFFFFFFFFFFFFFFFFFFFFFFFFFFFEA
:10270000FFFFFFFFFFFFFFFFFFFFFFFFFFFFFFFFD9
:10271000FFFFFFFFFFFFFFFFFFFFFFFFFFFFE1FFE7
:10272000FFC3FFFFFFFFC0FFFF81FFFFFFFF807FB1
:10273000FF00FFFFFFFF807FFF00FFFFFFFF807FA5
:10274000FF00FFFFFFFF807FFF00FFFFFFFFC0FFD5
:10275000FF81FFFFFFFFE1FFFFC3FFFFFFFFFFFF61
:10276000FFFFFFFFFFFFFFFFFFFFFFFFFFFFFFFF79
:10277000FFFFFFFFFFFFFFFFFFFFFFFFFFFFFFFF69
:10278000FFFFFFFFFFFFFFFFFFFFFFFFFFFFFFFF59
:10279000FFFFFFFFFFFFFFFFFFFFFFFFFFFFFFFF49
:102AE000FFFFFFFFFFFFFFFFFFF7FFFFFFFFFFFFFE
:102AF000FFFFFFFFFFFFFFFFFFFFFFF7FFFFFFFFEE
:102B0000FFFFFFFFFFFFFFF7FFFFFFFFFFFFFFFFDD
:102B1000FFFFFFFFFFFFFFFFFFF7FFFFFFFFFFFFCD
:102B2000FFFFFFFFFFF7FFFFFFFFFFFFFFFFFFFFBD
:102B3000FFFFFFFFFFFFFFF7FFFFFFFFFFFFFFFFAD
:102B4000FFFFFFF7FFFFFFFFFFFFFFFFFFFFFFFF9D
:102B5000FFFFFFFFFFF7FFFFFFFFFFFFFFFFFFFF8D
:102B6000FFF7FFFFFFFFFFFFFFFFFFFFFFFFFFFF7D
:102B7000FFFFFFF7FFFFFFFFFFFFFFFFFFFFFFF775
:102B8000FFFFFFFFFFFFFFFFFFFFFFFFFFFFFFFF55
:102B9000FFF7FFFFFFFFFFFFFFFFFFFFFFF7FFFF55
:102BA000FFFFFFFFFFFFFFFFFFFFFFFFFFFFFFF73D
:102BB000FFFFFFFFFFFFFFFFFFFFFFF7FFFFFFFF2D
:102BC000FFFFFFFFFFFFFFFFFFFFFFFFFFF7F80023
:102BD00003FFFFFFFFFFFFFFFFF7FFFFFFFFFFFF09
:102BE000FFFFFFFFFFFFFFFFFFFFFFF7F80003FFFF
:102BF000FFFFFFFFFFFFFFF7FFFFFFFFFFFFFFFFED
:102C0000FFFFFFFFFFFFFFFFFFF7F80003FFFFFFDE
:102C1000FFFFFFFFFFF7FFFFFFFFFFFFFFFFFFFFCC
:102C2000FFFFFFFFFFFFFFF7F80003FFFFFFFFFFBE
:102C3000FFFFFFF7FFFFFFFFFFFFFFFFFFFFFFFFAC
:102C4000FFFFFFFFFFF7F80003FFFFFFFFFFFFFF9E
:102C5000FFF7FFDFBFFE007FE007FF8E7FFFFFFF74
:102C6000FFFFFFF7F80003FFFFFFFFFFFC00FFF788
:102C7000FF9F9FFEF7FFEEF7FF77BFFFFFFFFFFF0E
:102C8000FFF7F80003FFFFFFFFFFFC00FFF7FFBBAC
:102C9000DFFEF7FFEEF7FF77BFFFFFFFFFFFFFF756
:102CA000F80003FFFFFFFFFFFDEFFFF7FFBBDFFEB5
:102CB000F7FFEEF7FF77BFFFFFFFFFFFFFF7F8001B
:102CC00003FFFFFFFFFFFDEFFFF7FFBBDFFEF3FF9B
:102CD000EEF7FF7BBFFFFFFFFFFFFFF7F80003FFEB
:102CE000FFFFFFFFFDEFFFF7FF801FFEF4FFEEF792
:102CF000FF7BBFFFFFFFFFFFFFF7F80003FFFFFFB2
:102D0000FFFFFDEFFFF7FFC43FFF0F7FF10FFF9CB9
:102D10007FFFFFFFFFFFFFF7F80003FFFFFFFFFF4D
:102D2000FCCFFFF7FFFFFFFFFFFFFFFFFFFFFFFFEE
:102D3000FFFFFFFFFFF7F80003FFFFFFFFFFFC0FA0
:102D4000FFF7FFFFFFFFE0FFE007FF003FFFFFFF90
:102D5000FFFFFFF7F80003FFFFFFFFFFFE1FFFF776
:102D6000FFFFDFFFDB7FFFFFFF7BFFFFFFFFFFFFBB
:102D7000FFF7F80003FFFFFFFFFFFFFFFFF7FFFF75
:102D8000DFFFDB7FFECFFF7BFFFFFFFFFFFFFFF7D4
:102D9000F80003FFFFFFFFFFFF00FFF7FFFFFFFF4C
:102DA000DB7FFDB7FF7BFFFFFFFFFFFFFFF7F800B3
:102DB00003FFFFFFFFFFFF00FFF7FFBFFFFFE2FF83
:102DC000FDB7FF7BFFFFFFFFFFFFFFF7F80003FFEB
:102DD000FFFFFFFFFF3FFFF7FFBFFFFFFFFFFDAF5D
:102DE000FF7BFFFFFFFFFFFFFFF7F80003FFFFFF81
:102DF000FFFFFF7FFFF7FFBF1FFFE6FFFE07FF8715
:102E0000FFFFFFFFFFFFFFF7F80003FFFFFFFFFFDC
:102E1000FF7FFFF7FFB81FFFDB7FFFFFFFFFFFFF15
:102E2000FFFFFFFFFFF7F80003FFFFFFFFFFFD00BD
:102E3000FFF7FFA0FFFFDB7FFE0FFF003FFFFFFF5D
:102E4000FFFFFFF7F80003FFFFFFFFFFFD00FFF7A5
:102E5000FF87FFFFDB7FFDF7FFFFFFFFFFFFFFFFA8
:102E6000FFF7F80003FFFFFFFFFFFFFFFFF7FF9FE4
:102E7000FFFFECFFFDF7FFFFFFFFFFFFFFFFFFF787
:102E8000F80003FFFFFFFFFFFF81FFF7FFFFFFFFDA
:102E9000FFFFFDF7FFFFFFFFFFFFFFFFFFF7F8005A
:102EA00003FFFFFFFFFFFF00FFF7FFFFFFFFE0FF54
:102EB000FEEFFFFFFFFFFFFFFFFFFFF7F80003FF3D
:102EC000FFFFFFFFFF7EFFF7FFEFFFFFDF7FFFFF4B
:102ED000FFFFFFFFFFFFFFFFFFF7F80003FFFFFF0C
:102EE000FFFFFF7EFFF7FFCFFFFFDF7FFFFFFF004A
:102EF0003FFFFFFFFFFFFFF7F80003FFFFFFFFFFAC
:102F0000FF3EFFF7FF801FFFDF7FE007FFFFFFFFB0
:102F1000FFFFFFFFFFF7F80003FFFFFFFFFFFF1CAE
:102F2000FFF7FF801FFFE0FFFFBFFFE03FFFFFFF56
:102F3000FFFFFFF7F80003FFFFFFFFFFFF9DFFF715
:102F4000FFFFFFFFFFFFFF3FFFF7FFFFFFFFF3FB69
:102F5000FFF7F80003FFFFFFFFFFFFFFFFF7FFFF93
:102F6000FFFFFFFFFECFFFEFFFFFFFFFF3F8FFF7CD
:102F7000F80003FFFFFFFFFFFF81FFF7FFFFFFFEEA
:102F8000007FFDF7FFEFFFFFFFFFE7FCFFF7F80013
:102F900003FFFFFFFFFFFF00FFF7FFFFFFFFFFFF44
:102FA000FFFFFFF03FFFFFFFC7FE7FF7F80003FFC3
:102FB000FFFFFFFFFF6EFFF7FFFFFFFFC0FFFFFFF9
:102FC000FFEFFFFFFFFFCFBE7FF7F80003FFFFFF1C
:102FD000FFFFFF6EFFF7FFFFFFFFFF7FFFFFFF8099
:102FE0003FFFFFFFCF3E7FF7F80003FFFFFFFFFF2C
:102FF000FF6EFFF7FFFFFFFFFF7FFFFFFFEFBFFF4A
:10300000FFFFCF3E7FF7F80003FFFFFFFFFFFF0C3E
:10301000FFF7FFA01FFFFF7FFECFFFFFFFFFFFFFB8
:10302000CE3E7FF7F80003FFFFFFFFFFFF8DFFF7A6
:10303000FFA01FFFC07FFDB7FFF07FFFFFFFE21C77
:10304000FFF7F80003FFFFFFFFFFFFFFFFF7FFFFA2
:10305000FFFFDFFFFDB7FFEDBFFFFFFFE088FFF7DA
:10306000F80003FFFFFFFFFFFF7EFFF7FFE01FFFFA
:10307000007FFDAFFFEDBFFFFFFFF3C1FFF7F800DB
:1030800003FFFFFFFFFFFF7EFFF7FFE01FFFDF7F74
:10309000FE07FFEDBFFFFFFFFFE3FFF7F80003FFB1
:1030A000FFFFFFFFFFFFFFF7FFE7FFFFFFFFFFFF50
:1030B000FFF17FFFFFFFFFFFFFF7F80003FFFFFFB8
:1030C000FFFFFFFFFFF7FFEFFFFEC07FFC07FFFFE3
:1030D000FFFFFFFFFFFFFFF7F80003FFFFFFFFFF0A
:1030E000FFFFFFF7FFEFFFFFFFFFFEFFFFFFFFFF09
:1030F000FFFFFFFE7FF7F80003FFFFFFFFFFFFFF6B
:10310000FFF7FFE01FFFFFFFFDFFFFE03FFFFFFFB7
:10311000FFFE7FF7F80003FFFFFFFFFFFFFFFFF752
:10312000FFF01FFFE0FFFDFFFFF7FFFFFFFFFFFFC7
:10313000FFF7F80003FFFFFFFFFFFFFFFFF7FFFFB1
:10314000FFFFDF7FFE07FFEFFFFFFFFFFFFFFFF740
:10315000F80003FFFFFFFFFFFFFFFFF7FFF03FFF58
:10316000DF7FFFFFFF803FFFFFFFCFFFFFF7F8008C
:1031700003FFFFFFFFFFFFFFFFF7FFE01FFFDF7F02
:10318000FFFFFF6FFFFFFFFFCFFFFFF7F80003FF19
:10319000FFFFFFFFFFFFFFF7FFEFDFFFE0FFFE0F87
:1031A000FF767FFFFFFFCFFFFFF7F80003FFFFFF72
:1031B000FFFFFFFFFFF7FFEFDFFFFFFFFDF7FFED73
:1031C000BFFFFFFFCFF87FF7F80003FFFFFFFFFF10
:1031D000FFFFFFF7FFE7DFFFC07FFDF7FFEDBFFF5A
:1031E000FFFFCFC07FF7F80003FFFFFFFFFFFFFFE8
:1031F000FFF7FFE39FFFEFFFFEF7FFED7FFFFFFF0E
:10320000CF83FFF7F80003FFFFFFFFFFFFFFFFF78C
:10321000FFF3BFFFDFFFE007FFF03FFFFFFFCC0F33
:10322000FFF7F80003FFFFFFFFFFFFFFFFF7FFFFC0
:10323000FFFFDFFFFFFFFFFFFFFFFFFFCC7FFFF779
:10324000F80003FFFFFFFFFFFFFFFFF7FF801FFFF7
:10325000E07FFFFFFFF07FFFFFFFC0FFFFF7F800F9
:1032600003FFFFFFFFFFFFFFFFF7FF801FFFFFFFD1
:10327000FFFFFFEFBFFFFFFFC3FFFFF7F80003FFF4
:10328000FFFFFFFFFFFFFFF7FFE7FFFFFFFFE7FF86
:10329000FFEFBFFFFFFFCFFFFFF7F80003FFFFFFC8
:1032A000FFFFFFFFFFF7FFEFFFFFFFFFF8FFFFEF5D
:1032B000BFFFFFFFCFFFFFF7F87FE3FFFFFFFFFF39
:1032C000FFFFFFF7FFEFFFFFFFFFFF1FFFF77FFF8E
:1032D000FFFFFFFFFFF7F87FE3FFFFFFFFFFFFFFA9
:1032E000FFF7FFE01FFFDF7FFFE7FFFFFFFFFFFFAD
:1032F000FFFFFFF7F83803FFFFFFFFFFFFFFFFF7B8
:10330000FFF01FFFFFFFFF1FFFFFFFFFFFFFFFFF9C
:10331000FFF7F81C03FFFFFFFFFFFFFFFFF7FFFFB3
:10332000FFFFFFFFF0FFFFF07FFFFFFFFFFFFFF753
:10333000F80703FFFFFFFFFFFFFFFFF7FFFFFFFFA0
:10334000FFFFEFFFFFEDBFFFFFFFFBFFFFF7F803FE
:1033500083FFFFFFFFFFFFFFFFF7FFFFFFFFFFFF01
:10336000F0FFFFEDBFFFFFFFF3FFFFF7F800C3FF24
:10337000FFFFFFFFFFFFFFF7FFFFFFFFFFFFFF1F45
:10338000FFEDBFFFFFFFE3FFFFF7F87FE3FFFFFF66
:10339000FFFFFFFFFFF7FFFFFFFFFDFFFFE7FFF16D
:1033A0007FFFFFFFC0007FF7F87FE3FFFFFFFFFF16
:1033B000FFFFFFF7FFFFFFFFF1FFFF1FFFFFFFFF13
:1033C000FFFFC0007FF7F80003FFFFFFFFFFFFFFD5
:1033D000FFF7FF801FFFCDFFF8FFFFFFFFFFFFFF9D
:1033E000FFFFFFF7F87FE3FFFFFFFFFFFFFFFFF7A0
:1033F000FF801FFF3DFFE7FFFFFFFFFFFFFFFFFF16
:10340000FFF7F87FE3FFFFFFFFFFFFFFFFF7FFBBC3
:10341000DFFE007FE007FFFFFFFFFFFFFFFFFFF77B
:10342000F84423FFFFFFFFFFFFFFFFF7FFBBDFFFB6
:10343000FDFFFEFFFFFFFFFFFFFFFFFFFFF7F84469
:1034400023FFFFFFFFFFFFFFFFF7FFBBDFFFFFFFD4
:10345000FDFFFFFFFFFFFFFFFFFFFFF7F84423FF24
:10346000FFFFFFFFFFFFFFF7FFBBDFFFBFFFFDFF1A
:10347000FFFFFFFFFFFFFFFFFFF7F84423FFFFFF02
:10348000FFFFFFFFFFF7FFBBDFFF7FFFFE07FFFF31
:10349000FFFFFFFFFFFFFFF7F84423FFFFFFFFFFE2
:1034A000FFFFFFF7FFBBDFFE007FFFFFFFFFFFFF18
:1034B000FFFFFFFFFFF7F84423FFFFFFFFFFFFFFC2
:1034C000FFF7FFBBDFFFFFFFFFFFFFFFFFFFFFFF78
:1034D000FFFFFFF7F84423FFFFFFFFFFFFFFFFF7AA
:1034E000FFFEFFFFFFFFEC07FFFFFFFFFFFFFFFFF8
:1034F000FFF7F86003FFFFFFFFFFFFFFFFF7FFFE8F
:10350000FFFF00FFFDFFFFFFFFFFFFFFFFFFFFF7D4
:10351000F87C03FFFFFFFFFFFFFFFFF7FFFEFFFE4B
:10352000F77FF007FFFFFFFFFFFFC0007FF7F81FE7
:10353000C3FFFFFFFFFFFFFFFFF7FFFEFFFEEF7F71
:10354000FDF7FFFFFFFFFFFFC0007FF7F803E3FF7A
:10355000FFFFFFFFFFFFFFF7FFFEFFFEEF7FFFFF15
:10356000FFFFFFFFFFFFFFFFFFF7F801E3FFFFFF94
:10357000FFFFFFFFFFF7FFFFFFFEEF7FFE0FFFFFE5
:10358000FFFFFFFFFFFFFFF7F80783FFFFFFFFFFCE
:10359000FFFFFFF7FFE003FF70FFFDB7FFFFFFFF37
:1035A000FFFFFFFFFFF7F83E03FFFFFFFFFFFFFFF7
:1035B000FFF7FFE003FFFFFFFDB7FFFFFFFFFFFF88
:1035C000C0007FF7F87803FFFFFFFFFFFFFFFFF763
:1035D000FFE79FFFFFFFFDB7FFFFFFFFFFFFC000FB
:1035E0007FF7F87803FFFFFFFFFFFFFFFFF7FFEF15
:1035F000DFFFFFFFFE2FFFFFFFFFFFFFE3FFFFF7F0
:10360000F83E03FFFFFFFFFFFFFFFFF7FFEFDFFFC6
:10361000FFFFFFFFFFFFFFFFFFFFF9FFFFF7F807C7
:1036200083FFFFFFFFFFFFFFFFF7FFE01FFFFFFF2D
:10363000FFFFFFFFFFFFFFFFF8FFFFF7F801E3FFCA
:10364000FFFFFFFFFFFFFFF7FFF03FFFDF7FFFFF01
:10365000FFFFFFFFFFFFFE3FFFF7F803E3FFFFFF62
:10366000FFFFFFFFFFF7FFFFFFFFE4FFFFFFFFFF8D
:10367000FFFFFFFFFF1FFFF7F81FC3FFFFFFFFFF65
:10368000FFFFFFF7FFF63FFFFBFFFFFFFFFFFFFF1F
:10369000FFFFFF8FFFF7F87C03FFFFFFFFFFFFFF38
:1036A000FFF7FFE61FFFE4FFFFFFFFFFFFFFFFFF46
:1036B000FFE7FFF7F86003FFFFFFFFFFFFFFFFF7E4
:1036C000FFECDFFFDF7FFFFFFFFFFFFFFFFFFFF1EB
:1036D000FFF7F80003FFFFFFFFFFFE39FFF7FFEDE5
:1036E000DFFFFFFFFFFFFFFFFFFFFFFFFFF8FFF719
:1036F000F80003FFFFFFFFFFFC18FFF7FFED9FFF40
:10370000FFFFFFFFFFFFFFFFFFFFC0007FF7F80095
:1037100003FFFFFFFFFFFCDCFFF7FFE01FFFFFFFE2
:10372000FFFFFFFFFFFFFFFFC0007FF7F80003FF71
:10373000FFFFFFFFFC007FF7FFF01FFF7F7FFFFF12
:10374000FFFFFFFFFFFFFFFFFFF7F80003FFFFFF93
:10375000FFFFFC007FF7FFFFFFFEFE7FFFFFFFFF85
:10376000FFFFFFFFFFFFFFF7F87FE3FFFFFFFFFF14
:10377000FDECFFF7FFE003FEFD7FFFFFFFFFFFFF14
:10378000FFFFFF07FFF7F87FE3FFFFFFFFFFFCE00E
:10379000FFF7FFE003FEFB7FFFFFFFFFFFFFFFFFE1
:1037A000F803FFF7F84203FFFFFFFFFFFEF1FFF70B
:1037B000FFE79FFEF77FFFFFFFFFFFFFFFFFF0F137
:1037C000FFF7F84203FFFFFFFFFFFFFFFFF7FFEFE9
:1037D000DFFF0F7FFFFFFFFFFFFFFFFFE3F8FFF7B4
:1037E000F84203FFFFFFFFFFFFFFFFF7FFEFDFFFE1
:1037F000FFFFFFFFFFFFFFFFFFFFE7FCFFF7F842C0
:1038000003FFFFFFFFFFFFFFFFF7FFE01FFFFDFFCD
:10381000FFFFFFFFFFFFFFFFE7FC7FF7F86603FFF7
:10382000FFFFFFFFFFFFFFF7FFF03FFFF1FFFFFF8D
:10383000FFFFFFFFFFFFCFFE7FF7F87E03FFFFFFD5
:10384000FFFFFFFFFFF7FFFFFFFFCDFFFFFFFFFFC2
:10385000FFFFFFFFCFFE7FF7F83C03FFFFFFFFFFF7
:10386000FFFFFFF7FFF03FFF3DFFFFFFFFFFFFFF01
:10387000FFFFCFFE7FF7F80003FFFFFFFFFFFFFF13
:10388000FFF7FFE01FFE007FFFFFFFFFFFFFFFFFCF
:10389000CFFE7FF7F87FE3FFFFFFFFFFFFFFFFF79C
:1038A000FFEDDFFFFDFFFFFFFFFFFFFFFFFFCFFE8D
:1038B0007FF7F87FE3FFFFFFFFFFFFFFFFF7FFED5D
:1038C000DFFF00FFFFFFFFFFFFFFFFFFCFFCFFF762
:1038D000F84203FFFFFFFFFFFFFFFFF7FFEDDFFEF3
:1038E000FF7FFFFFFFFFFFFFFFFFE7FCFFF7F8424F
:1038F00003FFFFFFFFFFFFFFFFF7FFE19FFEFF7FDB
:10390000FFFFFFFFFFFFFFFFE1F0FFF7F84203FFBC
:10391000FFFFFFFFFFFFFFF7FFF1BFFEFF7FFFFF8E
:10392000FFFFFFFFFFFFF9F1FFF7F84303FFFFFF82
:10393000FFFFFFFFFFF7FFFFFFFEFF7FFFFFFFFF20
:10394000FFFFFFFFFFF7FFF7F84383FFFFFFFFFFD6
:10395000FFFFFFF7FFE01FFF00FFFFFFFFFFFFFF7D
:10396000FFFFFFFFFFF7F862C3FFFFFFFFFFFFFF4F
:10397000FFF7FFE01FFFFFFFFFFFFFFFFFFFFFFF5E
:10398000FFFFFFF7F87E63FFFFFFFFFFFFFFFFF77B
:10399000FFE7FFFFFFFFFFFFFFFFFFFFFFFFC0008D
:1039A0007FF7F83C23FFFFFFFFFFFFFFFFF7FFEF6D
:1039B000FFFFFFFFFFFFFFFFFFFFFFFFC0007FF7DD
:1039C000F80003FFFFFFFFFFFFFFFFF7FFEFFFFF21
:1039D000FFFFFFFFFFFFFFFFFFFFFF3FFFF7F80FB6
:1039E00003FFFFFFFFFFFFFFFFF7FFFFFFFFFFFFEB
:1039F000FFFFFFFFFFFFFFFFFF3FFFF7F83FC3FFA2
:103A0000FFFFFFFFFFFFFFF7FFFFFFFFFFFFFFFFCE
:103A1000FFFFFFFFFFFFFF3FFFF7F830C3FFFFFF90
:103A2000FFFFFFFFFFF7FFFFFFFFFFFFFFFFFFFFAE
:103A3000FFFFFFFFFF3FFFF7F86063FFFFFFFFFFA0
:103A4000FFFFFFF7FFFFFFFFFFFFFFFFFFFFFFFF8E
:103A5000FFFFFF3FFFF7F84023FFFFFFFFFFFFFFE0
:103A6000FFF7FFFFFFFFFFFFFFFFFFFFFFFFFFFF6E
:103A7000FF3FFFF7F84023FFFFFFFFFFFFFFFFF7C8
:103A8000FFFFFFFFFFFFFFFFFFFFFFFFFFFFFF3F06
:103A9000FFF7F84023FFFFFFFF83FFFFFFF7FFFF64
:103AA000FFFFFFFFFFFFFFFFFFFFFFFFFF3FFFF7EE
:103AB000F86063FFFFFFFF83FFFFFFF7FFFFFFFFDC
:103AC000FFFFFFFFFFFFFFFFFFFFFF3FFFF7F830A4
:103AD000C3FFFFFFFF07FFFFFFF7FFFFFFFFFFFF32
:103AE000FFFFFFFFFFFFFFFFFF3FFFF7F83FC3FFB1
:103AF000FFFFFE07FFFFFFF7FFFFFFFFFFFFFFFFD7
:103B0000FFFFFFFFFFFFC0007FF7F80F03FFFFFF7E
:103B1000FE0FFFFFFFF7FFFFFFFFFFFFFFFFFFFFAE
:103B2000FFFFFFFFC0007FF7F80003FFFFFFFC0F60
:103B3000FFFFFFF7FFFFFFFFFFFFFFFFFFFFFFFF9D
:103B4000FFFFFFFFFFF7F87FE3FFFFFFF81FFFFF17
:103B5000FFF7FFFFFFFFFFFFFFFFFFFFFFFFFFFF7D
:103B6000FFFFFFF7F87FE3FFFFFFF00000007FF7A4
:103B7000FFFFFFFFFFFFFFFFFFFFFFFFFFFFFFFF55
:103B8000FFF7F84023FFFFFFC00000007FF7FFFFB3
:103B9000FFFFFFFFFFFFFFFFFFFFFFFFFFFFFFF73D
:103BA000F84023FFFFFFC00000007FF7FFFFFFFF8B
:103BB000FFFFFFFFFFFFFFFFFFFFFFFFFFF7F840E3
:103BC00023FFFFFFC00000007FF7FFFFFFFFFFFFA5
:103BD000FFFFFFFFFFFFFFFFFFFFFFF7F84023FF9F
:103BE000FFFFC00000007FF7FFFFFFFFFFFFFFFFA9
:103BF000FFFFFFFFFFFFFFFFFFF7F86063FFFFFF1F
:103C0000FFFFFFFFFFF7FFFFFFFFFFFFFFFFFFFFCC
:103C1000FFFFFFFFFFFFFFF7F870E3FFFFFFFFFF6E
:103C2000FFFFFFF7FFFFFFFFFFFFFFFFFFFFFFFFAC
:103C3000FFFFC0007FF7F83FC3FFFFFFFFFFFFFF5D
:103C4000FFF7FFFFFFFFFFFFFFFFFFFFFFFFFFFF8C
:103C5000C0007FF7F81F83FFFFFFFFFFFFFFFFF7A5
:103C6000FFFFFFFFFFFFFFFFFFFFFFFFFFFFCF3E55
:103C70007FF7F80003FFFFFFFFFFFFFFFFF7FFFFE6
:103C8000FFFFFFFFFFFFFFFFFFFFFFFFCF3E7FF7BD
:103C9000F87F83FFFFFFFFFFFFFFFFF7FFFFFFFF3F
:103CA000FFFFFFFFFFFFFFFFFFFFCF3E7FF7F87F24
:103CB000C3FFFFFFFFFFFFFFFFF7FFFFFFFFFFFF58
:103CC000FFFFFFFFFFFFFFFFCF3E7FF7F80063FF1F
:103CD000FFFFFFFFFFFFFFF7FFFFFFFFFFFFFFFFFC
:103CE000FFFFFFFFFFFFCF3E7FF7F80023FFFFFF3F
:103CF000FF007FFFFFF7FFFFFFFFFFFFFFFFFFFF5B
:103D0000FFFFFFFFCF3E7FF7F80023FFFFFFFC0020
:103D10001F1FFFF7FFFFFFFFFFFFFFFFFFFFFFFF7B
:103D2000FFFFCF3E7FF7F80023FFFFFFF8000F03F0
:103D3000FFF7FFFFFFFFFFFFFFFFFFFFFFFFFFFF9B
:103D4000CF3E7FF7F80063FFFFFFF0000701FFF7AA
:103D5000FFFFFFFFFFFFFFFFFFFFFFFFFFFFCF3E64
:103D60007FF7F87FC3FFFFFFE0000300FFF7FFFFCF
:103D7000FFFFFFFFFFFFFFFFFFFFFFFFCF3E7FF7CC
:103D8000F87F83FFFFFFE03E0300FFF7FFFFFFFF29
:103D9000FFFFFFFFFFFFFFFFFFFFCFFE7FF7F800F2
:103DA00003FFFFFFC07F81C07FF7FFFFFFFFFFFF23
:103DB000FFFFFFFFFFFFFFFFFFFFFFF7F80F03FF0E
:103DC000FFFFC0FF81E07FF7FFFFFFFFFFFFFFFF67
:103DD000FFFFFFFFFFFFFFCFFFF7F83FC3FFFFFF2E
:103DE000C1FFC1F07FF7FFFFFFFFFFFFFFFFFFFFF6
:103DF000FFFFFFFFFFCFFFF7F830E3FFFFFFC1FF3B
:103E0000C1F07FF7FFFFFFFFFFFFFFFFFFFFFFFF97
:103E1000FFFFFFCFFFF7F86063FFFFFFC1FFC1F0B7
:103E20007FF7FFFFFFFFFFFFFFFFFFFFFFFFFFFF2A
:103E3000FFCFFFF7F84023FFFFFFC1FFC1F07FF77F
:103E4000FFFFFFFFFFFFFFFFFFFFFFFFFFFFFFCFB2
:103E5000FFF7F84023FFFFFFC0FF83E07FF7FFFF7E
:103E6000FFFFFFFFFFFFFFFFFFFFFFFFFFCFFFF79A
:103E7000F84023FFFFFFE0FF03C0FFF7FFFFFFFF56
:103E8000FFFFFFFFFFFFFFFFFFFFFFFFFFF7F860F0
:103E900063FFFFFFE03E0600FFF7FFFFFFFFFFFFAE
:103EA000FFFFFFFFFFFFFFFFFFFFFFF7F830C3FF3C
:103EB000FFFFF0000001FFF7FFFFFFFFFFFFFFFF25
:103EC000FFFFFFFFFFFFC0007FF7F81083FFFFFF3A
:103ED000F8000003FFF7FFFFFFFFFFFFFFFFFFFFFB
:103EE000FFFFFFFFC0007FF7F84003FFFFFFFC006C
:103EF0000007FFF7FFFFFFFFFFFFFFFFFFFFFFFFD1
:103F0000FFFFCF9FFFF7F84003FFFFFFFE00001FFA
:103F1000FFF7FFFFFFFFFFFFFFFFFFFFFFFFFFFFB9
:103F2000CF9FFFF7F84003FFFFFFFFC000FFFFF741
:103F3000FFFFFFFFFFFFFFFFFFFFFFFFFFFFCF9F21
:103F4000FFF7F84003FFFFFFFFFFFFFFFFF7FFFF53
:103F5000FFFFFFFFFFFFFFFFFFFFFFFFCF9FFFF709
:103F6000F87FE3FFFFFFFFFFFFFFFFF7FFFFFFFF0C
:103F7000FFFFFFFFFFFFFFFFFFFFCF9FFFF7F87F70
:103F8000E3FFFFFFFFFFFFFFFFF7FFFFFFFFFFFF65
:103F9000FFFFFFFFFFFFFFFFCF9FFFF7F84003FF8B
:103FA000FFFFFFFFFFF07FF7FFFFFFFFFFFFFFFFB8
:103FB000FFFFFFFFFFFFCF9FFFF7F84003FFFFFF6B
:103FC000FFFFFFF07FF7FFFFFFFFFFFFFFFFFFFF98
:103FD000FFFFFFFFCF9FFFF7F84003FFFFFFFFFF4B
:103FE000FFF07FF7FFFFFFFFFFFFFFFFFFFFFFFF78
:103FF000FFFFE73FFFF7F84003FFFFFFFFFFFFF082
:104000007FF7FFFFFFFFFFFFFFFFFFFFFFFFFFFF48
:10401000E03FFFF7F80003FFFFFFFFFFFFF07FF730
:10402000FFFFFFFFFFFFFFFFFFFFFFFFFFFFE07F3F
:10403000FFF7F80003FFFFFFFFFFFFFFFFF7FFFFA2
:10404000FFFFFFFFFFFFFFFFFFFFFFFFFFFF7FF708
:10405000F80003FFFFFFFFFFFFFFFFF7FFFFFFFF7A
:10406000FFFFFFFFFFFFFFFFFFFFFFF87FF7F800F5
:1040700003FFFFFFFFFFFFFFFFF7FFFFFFFFFFFF54
:10408000FFFFFFFFFFFFFFFFFFF0FFF7F80003FF59
:10409000FFFFFFFFFFFFFFF7FFFFFFFFFFFFFFFF38
:1040A000FFFFFFFFFFFFFF83FFF7F87FA3FFFFFF87
:1040B000FFFFE01FFFF7FFFFFFFFFFFFFFFFFFFF17
:1040C000FFFFFFFFFE07FFF7F87FA3FFFFFFFE07DD
:1040D000C007FFF7FFFFFFFFFFFFFFFFFFFFFFFF2F
:1040E000FFFFF80FFFF7F80003FFFFFFF80380035F
:1040F000FFF7FFFFFFFFFFFFFFFFFFFFFFFFFFFFD8
:10410000E0CFFFF7F80003FFFFFFF0010001FFF72A
:10411000FFFFFFFFFFFFFFFFFFFFFFFFFFFFC3CF1B
:10412000FFF7F80003FFFFFFE0000000FFF7FFFFCD
:10413000FFFFFFFFFFFFFFFFFFFFFFFFC7CFFFF7FF
:10414000F80003FFFFFFE0000780FFF7FFFFFFFF1E
:10415000FFFFFFFFFFFFFFFFFFFFE1CFFFF7F800CB
:1041600003FFFFFFC0601FE07FF7FFFFFFFFFFFFC0
:10417000FFFFFFFFFFFFFFFFF84FFFF7F80003FF10
:10418000FFFFC0F01FE07FF7FFFFFFFFFFFFFFFF14
:10419000FFFFFFFFFFFFFC0FFFF7F80003FFFFFF2C
:1041A000C1F83FF07FF7FFFFFFFFFFFFFFFFFFFFBB
:1041B000FFFFFFFFFF03FFF7F80003FFFFFFC1F85A
:1041C0003FF07FF7FFFFFFFFFFFFFFFFFFFFFFFF56
:1041D000FFFFFFE1FFF7F80003FFFFFFC1F83FF02B
:1041E0007FF7FFFFFFFFFFFFFFFFFFFFFFFFFFFF67
:1041F000FFF07FF7F80003FFFFFFC1F83FF07FF704
:10420000FFFFFFFFFFFFFFFFFFFFFFFFFFFFFFFCC1
:104210007FF7F80003FFFFFFC0F01FE07FF7FFFF0D
:10422000FFFFFFFFFFFFFFFFFFFFFFFFFFFFFFF7A6
:10423000F80003FFFFFFC0601FE07FF7FFFFFFFFF5
:10424000FFFFFFFFFFFFFFFFFFFFC0007FF7F8004A
:1042500003FFFFFFE0000780FFF7FFFFFFFFFFFF07
:10426000FFFFFFFFFFFFFFFFC0007FF7F80003FF26
:10427000FFFFE0000000FFF7FFFFFFFFFFFFFFFF72
:10428000FFFFFFFFFFFFCF9FFFF7F80003FFFFFFD8
:10429000F0010001FFF7FFFFFFFFFFFFFFFFFFFF40
:1042A000FFFFFFFFCF9FFFF7F80003FFFFFFF803BB
:1042B0008003FFF7FFFFFFFFFFFFFFFFFFFFFFFF91
:1042C000FFFFCF9FFFF7F80003FFFFFFFE07C007C8
:1042D000FFF7FFFFFFFFFFFFFFFFFFFFFFFFFFFFF6
:1042E000CF9FFFF7F80003FFFFFFFFFFF01FFFF76F
:1042F000FFFFFFFFFFFFFFFFFFFFFFFFFFFFCF9F5E
:10430000FFF7F80003FFFFFFFFFFFFFFFFF7FFFFCF
:10431000FFFFFFFFFFFFFFFFFFFFFFFFCF9FFFF745
:10432000F80003FFFFFFFFE000FFFFF7FFFFFFFFC5
:10433000FFFFFFFFFFFFFFFFFFFFCF9FFFF7F8002B
:1043400003FFFFFFFE00000FFFF7FFFFFFFFFFFF70
:10435000FFFFFFFFFFFFFFFFCF9FFFF7F80003FF07
:10436000FFFFF8000003FFF7FFFFFFFFFFFFFFFF66
:10437000FFFFFFFFFFFFC73FFFF7F80003FFFFFF4F
:10438000F0000001FFF7FFFFFFFFFFFFFFFFFFFF50
:10439000FFFFFFFFE03FFFF7F80003FFFFFFE00034
:1043A0000000FFF7FFFFFFFFFFFFFFFFFFFFFFFF23
:1043B000FFFFF07FFFF7F80003FFFFFFE00FFE00B5
:1043C000FFF7FFFFFFFFFFFFFFFFFFFFFFFFFFFF05
:1043D000FFFFFFF7F80003FFFFFFC07FFFC07FF77D
:1043E000FFFFFFFFFFFFFFFFFFFFFFFFFFFFFFFFDD
:1043F000FFF7F80003FFFFFFC0FFFFE07FF7FFFFBD
:10440000FFFFFFFFFFFFFFFFFFFFFFFFFFFFFFF7C4
:10441000F80003FFFFFFC1FFFFF07FF7FFFFFFFF83
:10442000FFFFFFFFFFFFFFFFFFFFC0007FF7F80068
:1044300003FFFFFFC1FFFFF07FF7FFFFFFFFFFFF5D
:10444000FFFFFFFFFFFFFFFFC0007FF7F80003FF44
:10445000FFFFC1FFFFF07FF7FFFFFFFFFFFFFFFF41
:10446000FFFFFFFFFFFFCF3E7FF7F80003FFFFFFD7
:10447000C1FFFFF07FF7FFFFFFFFFFFFFFFFFFFF21
:10448000FFFFFFFFCF3E7FF7F80003FFFFFFC0FFF6
:10449000FFE07FF7FFFFFFFFFFFFFFFFFFFFFFFFD3
:1044A000FFFFCF3E7FF7F80003FFFFFFC07FFFC095
:1044B0007FF7FFFFFFFFFFFFFFFFFFFFFFFFFFFF94
:1044C000CF3E7FF7F80003FFFFFFE00FFE00FFF78E
:1044D000FFFFFFFFFFFFFFFFFFFFFFFFFFFFCF3EDD
:1044E0007FF7F80003FFFFFFE0000000FFF7FFFF8A
:1044F000FFFFFFFFFFFFFFFFFFFFFFFFCF3E7FF745
:10450000F80003FFFFFFF0000001FFF7FFFFFFFFD0
:10451000FFFFFFFFFFFFFFFFFFFFCF3E7FF7F8002A
:1045200003FFFFFFF8000003FFF7FFFFFFFFFFFFA0
:10453000FFFFFFFFFFFFFFFFCF3E7FF7F80003FF06
:10454000FFFFFE00000FFFF7FFFFFFFFFFFFFFFF72
:10455000FFFFFFFFFFFFCF3E7FF7F80003FFFFFFE6
:10456000FFE000FFFFF7FFFFFFFFFFFFFFFFFFFF81
:10457000FFFFFFFFCF3E7FF7F80003FFFFFFFFFFC6
:10458000FFFFFFF7FFFFFFFFFFFFFFFFFFFFFFFF43
:10459000FFFFFFFE7FF7F80003FFFFFFFFFFFFFFB6
:1045A000FFF7FFFFFFFFFFFFFFFFFFFFFFFFFFFF23
:1045B000FFFFFFF7F80003FFFFFFFFFFFFFFFFF71D
:1045C000FFFFFFFFFFFFFFFFFFFFFFFFFFFFFFFFFB
:1045D000FFF7F80003FFFFFFFFFFFFFFFFF7FFFFFD
:1045E000FFFFFFFFFFFFFFFFFFFFFFFFC0007FF7A1
:1045F000F80003FFFFFFFFFFFFFFFFF7FFFFFFFFD5
:10460000FFFFFFFFFFFFFFFFFFFFC0007FF7F80086
:1046100003FFFFFFFFFFFFFFFFF7FFFFFFFFFFFFAE
:10462000FFFFFFFFFFFFFFFFCF3FFFF7F80003FF94
:10463000FFFFFFFFFFFFFFF7FFFFFFFFFFFFFFFF92
:10464000FFFFFFFFFFFFCF3FFFF7F80003FFFFFF74
:10465000FFFFFFFFFFF7FFFFFFFFFFFFFFFFFFFF72
:10466000FFFFFFFFCF3FFFF7F80003FFFFFFFFFF54
:10467000FFFFFFF7FFFFFFFFFFFFFFFFFFFFFFFF52
:10468000FFFFCF3FFFF7F80003FFFFFFFFFFFFFF34
:10469000FFF7FFFFFFFFFFFFFFFFFFFFFFFFFFFF32
:1046A000CF3FFFF7F80003FFFFFFFFFFFFFFFFF71C
:1046B000FFFFFFFFFFFFFFFFFFFFFFFFFFFFCF1F1A
:1046C000FFF7F80003FFFFFFFFFFFFFFFFF7FFFF0C
:1046D000FFFFFFFFFFFFFFFFFFFFFFFFCF1FFFF702
:1046E000F80003FFFFFFFFFFFFFFFFF7FFFFFFFFE4
:1046F000FFFFFFFFFFFFFFFFFFFFCF07FFF7F80000
:1047000003FFFFFFFFFFFFFFFFF7FFFFFFFFFFFFBD
:10471000FFFFFFFFFFFFFFFFC761FFF7F80003FF89
:10472000FFFFFFFFFFFFFFF7FFFFFFFFFFFFFFFFA1
:10473000FFFFFFFFFFFFE670FFF7F80003FFFFFF3B
:10474000FFFFFFFFFFF7FFFFFFFFFFFFFFFFFFFF81
:10475000FFFFFFFFE07C7FF7FFFFFFFFFFFFFFFF93
:10476000FFFFFFF7FFFFFFFFFFFFFFFFFFFFFFFF61
:10477000FFFFF9FE7FF7FFFFFFFFFFFFFFFFFFFFD8
:10478000FFF7FFFFFFFFFFFFFFFFFFFFFFFFFFFF41
:10479000FFFFFFF7FFFFFFFFFFFFFFFFFFFFFFF739
:1047A000FFFFFFFFFFFFFFFFFFFFFFFFFFFFFFFF19
:1047B000FFF7FFFFFFFFFFFFFFFFFFFFFFF7FFFF19
:1047C000FFFFFFFFFFFFFFFFFFFFFFFFFFFFFFF701
:1047D000FFFFFFFFFFFFFFFFFFFFFFF7FFFFFFFFF1
:1047E000FFFFFFFFFFFFFFFFFFFFFFFFFFF7FFFFE1
:1047F000FFFFFFFFFFFFFFFFFFF7FFFFFFFFFFFFD1
:10480000FFFFFFFFFFFFFFFFFFFFFFF7FFFFFFFFC0
:10481000FFFFFFFFFFFFFFF7FFFFFFFFFFFFFFFFB0
:10482000FFFFFFFFFFFFFFFFFFF7FFFFFFFFFFFFA0
:10483000FFFFFFFFFFF7FFFFFFFFFFFFFFFFFFFF90
:10484000FFFFFFFFFFFFFFF7FFFFFFFFFFFFFFFF80
:10485000FFFFFFF7FFFFFFFFFFFFFFFFFFFFFFFF70
:10486000FFFFFFFFFFF7FFFFFFFFFFFFFFFFFFFF60
:10487000FFF7FFFFFFFFFFFFFFFFFFFFFFFFFFFF50
:10488000C0007FF7FFFFFFFFFFFFFFFFFFFFFFF706
:10489000FFFFFFFFFFFFFFFFFFFFFFFFFFFFC00066
:1048A0007FF7FFFFFFFFFFFFFFFFFFFFFFF7FFFFA8
:1048B000FFFFFFFFFFFFFFFFFFFFFFFFCFFE7FF7C1
:1048C000FFFFFFFFFFFFFFFFFFFFFFF7FFFFFFFF00
:1048D000FFFFFFFFFFFFFFFFFFFFCFFE7FF7F800A7
:1048E00000000000000000000000000000000000C8
:1048F000000000003FFFFFFFCFFE7FF7FFFFFFFF3D
:10490000FFFFFFFFFFFFFFF7FFFFFFFFFFFFFFFFBF
:10491000FFFFFFFFFFFFCFFE7FF7FFFFFFFFFFFF60
:10492000FFFFFFFFFFF7FFFFFFFFFFFFFFFFFFFF9F
:10493000FFFFFFFFCFFE7FF7FFFFFFFFFFFFFFFF40
:10494000FFFFFFF7FFFFFFFFFFFFFFFFFFFFFFFF7F
:10495000FFFFCFFE7FF7FFFFFFFFFFFFFFFFFFFF20
:10496000FFF7FFFFFFFFFFFFFFFFFFFFFFFFFFFF5F
:10497000CFFE7FF7FFFFFFFFFFFFFFFFFFFFFFF708
:10498000FFFFFFFFFFFFFFFFFFFFFFFFFFFFC7FC72
:10499000FFF7FFFFFFFFFFFFFFFFFFFFFFF7FFFF37
:1049A000FFFFFFFFFFFFFFFFFFFFFFFFE3FCFFF73E
:1049B000FFFFFFFFFFFFFFFFFFFFFFF7FFFFFFFF0F
:1049C000FFFFFFFFFFFFFFFFFFFFF1E1FFF7FFFF2B
:1049D000FFFFFFFFFFFFFFFFFFF7FFFFFFFFFFFFEF
:1049E000FFFFFFFFFFFFFFFFF001FFF7FFFFFFFFEC
:1049F000FFFFFFFFFFFFFFF7FFFFFFFFFFFFFFFFCF
:104A0000FFFFFFFFFFFFFC07FFF7FFFFFFFFFFFFB9
:104A1000FFFFFFFFFFF7FFFFFFFFFFFFFFFFFFFFAE
:104A2000FFFFFFFFFFFFFFF7FFFFE7FFFFFFFFFFB6
:104A3000FFFFFFF7FFFFFFFFFFFFFFFFFFFFFFFF8E
:104A4000FFFFFFFFFFF7FFFFF8FFFF807FFFFFFF84
:104A5000FFF7FFFFFFFFFFFFFFFFFFFFFFFFFFFF6E
:104A6000FFFFFFF7FFFFFF1FFFFFBFFF00FFFFF785
:104A7000FFFFFFFFFFFFFFFFFFFFFFFFFFFFC00084
:104A80007FF7FFFFFFE7FFFFDFFFFF7FFFF7FFFF7E
:104A9000FFFFFFFFFFFFFFFFFFFFFFFFC0007FF7EC
:104AA000FFFFFF1FFFFFDFFFFFBFFFF7FFFFFFFF5E
:104AB000FFFFFFFFFFFFFFFFFFFFFFFFFFF7FFFF0E
:104AC000F0FFFFFFDFFFFFBFFFF7FFFFFFFFFFFF6D
:104AD000FFFFFFFFFFFFFFFFFFF7FFF7FFFFEFFF06
:104AE000FFFFBFFFFFBFFFF7FFFFFFFFFFFFFFFF5E
:104AF000FFFFFFFFFFFFFFF1FFF7FFFFF0FFFF806A
:104B00007FFFFF7FFFF7FFFFFFFFFFFFFFFFCFFFED
:104B1000FFFFFFFFF0F0FFF7FFFFFF1FFFFFFFFFAB
:104B200000FFFFF7FFFFFFFFFFFFFFFE03FFFFFF99
:104B3000FFFFE27CFFF7FFFFFFE7FF801FFFFFFFA4
:104B4000FFF7FFFFFFFFFFFFFFFC01FFFFFFFFFF7E
:104B5000C67C7FF7FFFFFF1FFFF7FFFF003FFFF758
:104B6000FFFFFFFFFFFFFFF8F8FFFFFFFFFFCF3E54
:104B70007FF7FFFFF8FFFFC01FFFFFFFFFF7FFFFFB
:104B8000FFFFFFFFFFF1FCFFFFFFFFFFCF3E7FF7BF
:104B9000FFFFE7FFFFF7DFFFEFFFFFF7FFFFFFFF7D
:104BA000FFFFFFF3FCFFFFFFFFFFCF3E7FF7FFFF9D
:104BB000FFFFFFFFFFFF803FFFF7FFFFFFFFFFFF4C
:104BC000FFF3DCFFFFFFFFFFCFBE7FF7FFFFEC0728
:104BD000FFF01FFFEFBFFFF7FFFFFFFFFFFFFFF338
:104BE000D9FFFFFFFFFFCFBE7FF7FFFFFFFFFFFBF8
:104BF000FFFFFFFFFFF7FFFFFFFFFFFFFFF1C1FF19
:104C0000FFFFFFFFC79E7FF7FFFFFE0FFFF7FFFFCE
:104C1000E03FFFF7FFFFFFFFFFFFFFF8C1FFFFFFD0
:104C2000FFFFE79C7FF7FFFFFDF7FFFFFFFFF7FFA9
:104C3000FFF7FFFFFFFFFFFFFFFCCFFFFFFFFFFFBF
:104C4000E388FFF7FFFFFDF7FFFB3FFFEFFFFFF7F5
:104C5000FFFFFFFFFFFFFFFFFFFFFFFFFFFFF3C1AE
:104C6000FFF7FFFFFEF7FFF6DFFFF67FFFF7FFFF1F
:104C7000FFFFFFFFFFFFFFFFFFFFFFFFFFF3FFF758
:104C8000FFFFE007FFF6DFFFEDBFFFF7FFFFFFFFCE
:104C9000FFFFFFFF81FFFFFFFFFFFFFFFFF7FFFFAA
:104CA000FFFFFFF6BFFFEDBFFFF7FFFFFFFFFFFFB7
:104CB000FFFF01FFFFFFFFFFFFFFFFF7FFFFFE0FFB
:104CC000FFF81FFFED7FFFF7FFF80000000001FE77
:104CD0003CFFFFFFFFFFC0007FF7FFFFFDB7FFFFB7
:104CE000FFFFF03FFFF7FFF80000000001FE7CFF30
:104CF000FFFFFFFFC0007FF7FFFFFDB7FFFFFFFFD4
:104D0000FFFFFFF7FFF80000000001FE7CFFFFFF40
:104D1000FFFFCF9FFFF7FFFFFDB7FFFFFFFFFFFF85
:104D2000FFF7FFF80000000001FE71FFFFFFFFFF2B
:104D3000CF9FFFF7FFFFFE2FFFFFFFFFFFFFFFF7F4
:104D4000FFF80000000001FF01FFFFFFFFFFCF9F02
:104D5000FFF7FFFFFFFFFF801FFFFFFFFFF7FFF8D9
:104D60000000000001FF87FFFFFFFFFFCF9FFFF75D
:104D7000FFFFFFFFFFFFFFFFEFFFFFF7FFF8000060
:104D8000000001FFFFFFFFFFFFFFCF9FFFF7FFFFC7
:104D9000FFFFFFF83FFF803FFFF7FFF80000000034
:104DA00001FFFFFFFFFFFFFFCF9FFFF7FFFFFFFFA9
:104DB000FFF7DFFFEFBFFFF7FFF80000000001FF84
:104DC00081FFFFFFFFFFCF9FFFF7FFFFFCFFFFF714
:104DD000DFFFFFFFFFF7FFF80000000001FF01FF0A
:104DE000FFFFFFFFC71FFFF7FFFFFF1FFFF7DFFFFB
:104DF000003FFFF7FFF8003FFFFF01FF3CFFFFFF11
:104E0000FFFFE73FFFF7FFFFFFE7FFF83FFFF7FF79
:104E1000FFF7FFF8003FFFFF01FE7CFFFFFFFFFFF2
:104E2000E03FFFF7FFFFFF1FFFFFFFFFEFFFFFF771
:104E3000FFF8003FFFFF01FE7DFFFFFFFFFFF0FFD8
:104E4000FFF7FFFFFCFFFFF3FFFFEFFFFFF7FFF8A8
:104E5000003FFFFF01FE31FFFFFFFFFFFFFFFFF7F6
:104E6000FFFFEC07FFFC7FFFF03FFFF7FFF8003F7D
:104E7000FFFF01FF01FFFFFFFFFFFFFFFFF7FFFF46
:104E8000FFFFFFFF9FFFFFFFFFF7FFF8003FFFFF60
:104E900001FF87FFFFFFFFFFC0007FF7FFFFFE0F4F
:104EA000FFFC7FFF603FFFF7FFF80000001F01FFDE
:104EB000FFFFFFFFFFFFC0007FF7FFFFFDB7FFF31E
:104EC000FFFFFFFFFFF7FFF80000001F01FFFFFFDC
:104ED000FFFFFFFFFFFE7FF7FFFFFDB7FFFC7FFF38
:104EE000E03FFFF7FFF80000001F01FF80FFFFFF1A
:104EF000FFFFFFFE7FF7FFFFFDB7FFFF9FFFF7FFFD
:104F0000FFF7FFF80000001F01F000FFFFFFFFFFA9
:104F1000FFFE7FF7FFFFFE2FFFFC7FFFEFFFFFF796
:104F2000FFF80000001F01F014FFFFFFFFFFFFFE6E
:104F30007FF7FFFFFCFFFFF3FFFFEFFFFFF7FFF837
:104F40001FFFFE1F01F2F4FFFFFFFFFFFFFE7FF7D1
:104F5000FFFFFF1FFFFFFFFFF03FFFF7FFF81FFFFF
:104F6000FE1F01F2F4FFFFFFFFFFFFFE7FF7FFFFD1
:104F7000FFE7FFFFFFFFFFFFFFF7FFF81FFFFE1F29
:104F800001F2ECFFFFFFFFFFFFFE7FF7FFFFFF1FB8
:104F9000FFFFFFFFFFFFFFF7FFF81FFFFE1F01F3FB
:104FA00019FFFFFFFFFFFFFE7FF7FFFFFCFFFFF88A
:104FB0003FFFFFFFFFF7FFF81FFFFE1F01F8F3FFA2
:104FC000FFFFFFFFFFFE7FF7FFFFFF1FFFF7DFFF82
:104FD000FFFFFFF7FFF81F003E1F01F807FFFFFF6D
:104FE000FFFFFFF87FF7FFFFFFE7FFF7DFFFFFFFA0
:104FF000FFF7FFF81F003E1F01FE0FFFFFFFFFFF3F
:10500000FFE0FFF7FFFFFF1FFFF7DFFFFFFFFFF7E7
:10501000FFF81F003E1F01FFFFFFFFFFFFFFFF83A1
:10502000FFF7FFFFFCFFFFFBBFFFFFFFFFF7FFF8EE
:105030001F003E1F01FFF9FFFFFFFFFFFF0FFFF7FC
:10504000FFFFFFFFFFFFFFFFFFFFFFF7FFF81F005E
:105050003E1F01FF01FFFFFFFFFFF80FFFF7FFFFFC
:10506000EC07FFF83FFFFFFFFFF7FFF81F003E00D0
:1050700001F203FFFFFFFFFFE0CFFFF7FFFFFFFF9E
:10508000FFF7DFFFFFFFFFF7FFF81F003E0001F211
:105090007FFFFFFFFFFFC3CFFFF7FFFFFC07FFF717
:1050A000DFFFFFFFFFF7FFF81F003E0001FFFFFFDC
:1050B000FFFFFFFFC7CFFFF7FFFFFEFFFFF7DFFF99
:1050C000FFFFFFF7FFF81F003E0001FFF9FFFFFFA2
:1050D000FFFFE1CFFFF7FFFFFDFFFFF83FFFFFFFFF
:1050E000FFF7FFF81F003E0001FF09FFFFFFFFFF72
:1050F000F00FFFF7FFFFFDFFFFFFFFFFFFFFFFF7D1
:10510000FFF8003E001F01FE0CFFFFFFFFFFFE0F38
:10511000FFF7FFFFFE07FFFFFFFFFFFFFFF7FFF8AF
:10512000003E001F01FE4CFFFFFFFFFFFF03FFF7E4
:10513000FFFFFFFFFFF01FFFFFFFFFF7FFF8003E3D
:10514000001F01FE44FFFFFFFFFFFFE1FFF7FFFF2E
:10515000FE0DFFFBFFFFFFFFFFF7FFF8003E001F04
:1051600001FE61FFFFFFFFFFFFF07FF7FFFFFDF68E
:10517000FFF7FFFFFFFFFFF7FFF8003E001F01FFF3
:1051800021FFFFFFFFFFFFFC7FF7FFFFFDF6FFF7AB
:10519000FFFFFFFFFFF7FFF8003E001F01FFFFFFCB
:1051A000FFFFFFFFDFFF7FF7FFFFFEEEFFF81FFFB0
:1051B000FFFFFFF7FFF8003E001F01FFFF9FFFFF0B
:1051C000FFFFCFFFFFF7FFFFFC01FFFFFFFFFFFF28
:1051D000FFF7FFF8003E001F01FFE01FFFFFFFFF8A
:1051E000C3FFFFF7FFFFFFFFFFF9BFFFFFFFFFF761
:1051F000FFF8003E001F01FF003FFFFFFFFFF3FF2E
:10520000FFF7FFFFFFFFFFF6DFFFFFFFFFF7FFF8EE
:10521000003E001F01FE01FFFFFFFFFFF8FFFFF749
:10522000FFFFFFFFFFF6DFFFFFFFFFF7FFF8003E86
:10523000001F01FE3CFFFFFFFFFFFE7FFFF7FFFFA8
:10524000FFFFFFF6DFFFFFFFFFF7FFF8003FFFFF65
:1052500001FE7CFFFFFFFFFFFE1FFFF7FFFFFFFFC9
:10526000FFFB3FFFFFFFFFF7FFF8003FFFFF01FEDF
:105270007CFFFFFFFFFFFF807FF7FFFFFECFFFFFF9
:10528000FFFFFFFFFFF7FFF8003FFFFF01FE21FFD9
:10529000FFFFFFFFFF007FF7FFFFFDB7FFF03FFFBE
:1052A000FFFFFFF7FFF8003FFFFF01FF03FFFFFFD6
:1052B000FFFFFE3FFFF7FFFFFDB7FFFFDFFFFFFF31
:1052C000FFF7FFF8003FFFFF01FF8FFFFFFFFFFF2A
:1052D000FC7FFFF7FFFFFDAFFFFFDFFFFFFFFFF7E3
:1052E000FFF8003FFFFF01FFFFFFFFFFFFFFF9FF98
:1052F000FFF7FFFFFE07FFFFDFFFFFFFFFF7FFF8EE
:105300000000000001FFF0FFFFFFFFFFF3FFFFF7CA
:10531000FFFFFFFFFFF01FFFFFFFFFF7FFF8000099
:10532000000001FE00FFFFFFFFFFC7FFFFF7FFFFC9
:10533000FC07FFFFFFFFFFFFFFF7FFF80000000083
:1053400001F007FFFFFFFFFFCFFFFFF7FFFFFEFFAB
:10535000FFF01FFFFFFFFFF7FFF80000000001F163
:10536000FFFFFFFFFFFFFFFFFFF7FFFFFDFFFFFB5B
:10537000FFFFFFFFFFF7FFF80000000001FFFFFF46
:10538000FFFFFFFFFFFFFFF7FFFFFDFFFFF7FFFF3F
:10539000FFFFFFF7FFF80000000001FFE1FFFFFF44
:1053A000FFFFFFFFFFF7FFFFFE07FFF7FFFFFFFF16
:1053B000FFF7FFF80000000001FF20FFFFFFFFFFE5
:1053C000FFFFFFF7FFFFFFFFFFF81FFFFFFFFFF7E4
:1053D000FFF80000000001FE2CFFFFFFFFFFFFFFB2
:1053E000FFF7FFFFFE0DFFFBFFFFFFFFFFF7FFF8DB
:1053F0000000000001FE6DFFFFFFFFFFFFFFFFF752
:10540000FFFFFDF6FFF7FFFFFFFFFFF7FFFFFFFFC7
:10541000FFFFFFFE69FFFFFFFFFFFFFFFFF7FFFF3B
:10542000FDF6FFF7FFFFFFFFFFF7FFFFFFFFFFFFA7
:10543000FFFE01FFFFFFFFFFFFFFFFF7FFFFFEEE95
:10544000FFF81FFFFFFFFFF7FFFFFFFFFFFFFFFF5B
:1054500000FFFFFFFFFFFFFFFFF7FFFFFC01FFFF64
:10546000FFFFFFFFFFF7FFFFFFFFFFFFFFFFFFFF54
:10547000FFFFFFFFFFFFFFF7FFFFFFFFFFFFFFFF44
:10548000FFFFFFF7FFFFFFFFFFFFFFFFFF9FFFFF94
:10549000FFFFFFFFFFF7FFFFE007FFF003FFFFFF46
:1054A000FFF7FFFFFFFFFFFFFFFFFF9FFFFFFFFF74
:1054B000FFFFFFF7FFFFFFFFFFFBBFFFFFFFFFF750
:1054C000FFFFFFFFFFFFFFFE031FFFFFFFFFFFFFC9
:1054D000FFF7FFFFFFFFFFF7DFFFFFFFFFF7FFFF14
:1054E000FFFFFFFFFFFE003FFFFFFFFFFFFFFFF794
:1054F000FFFFFE0FFFF7DFFFFFFFFFF7FFFFFFFFDD
:10550000FFFFFFFFF87FFFFFFFFFFFFFFFF7FFFF3A
:10551000FDB7FFF83FFFFFFFFFF7FFFFFFFFFFFFB4
:10552000FFFFE1FFFFFFFFFFFFFFFFF7FFFFFDB7FB
:10553000FFF7FFFFFFFFFFF7FFFFFFFFFFFFFFFF8B
:1055400087FFFFFFFFFFFFFFFFF7FFFFFDB7FFC074
:105550001FFFFFFFFFF7FFFFFFFFFFFFFFFE1FFF24
:10556000FFFFFFFFFFFFFFF7FFFFFE2FFFF7DFFF4C
:10557000FFFFFFF7FFFFFFFFFFFFFFFE3FFFFFFF04
:10558000FFFFFFFFFFF7FFFFFFFFFFFFFFFFFFFF33
:10559000FFF7FFFFFFFFFFFFFFFFFFFFFFFFFFFF23
:1055A000FFFFFFF7FFFFFFFFFFB01FFFFFFFFFF74A
:1055B000FFFFFFFFFFFFFFFFFFFFFFFFFFFFFFFFFB
:1055C000FFF7FFFFFFFFFFFFFFFFFFFFFFF7FFFFFB
:1055D000FFFFFFFFFFFFFFFFFFFFFFFFFFFFFFF7E3
:1055E000FFFFFFFFFFF83FFFFFFFFFF7FFFFFFFF9A
:1055F000FFFFFFFFFFFFFFFFFFFFFFFFFFF7FFFFC3
:10560000FFFFFFF7DFFFFFFFFFF7FFFFFFFFFFFFDA
:10561000FFFFFFFFFFFFFFFFFFFFFFF7FFFFFFFFA2
:10562000FFF7DFFFFFFFFFF7FFFFFFFFFFFFFFFFBA
:10563000FFFFFFFFFFFFFFFFFFF7FFFFFFFFFFF78A
:10564000DFFFFFFFFFF7FFFFFFFFFFFFFFFFFFFF92
:10565000FFFFFFFFFFFFFFF7FFFFFFFFFFF83FFF29
:10566000FFFFFFF7FFFFFFFFFFFFFFFFFFFFFFFF52
:10567000FFFFFFFFFFF7FFFFFFFFFFFFFFFFFFFF42
:10568000FFF7FFFFFFFFFFFFFFFFFFFFFFFFFFFF32
:10569000FFFFFFF7FFFFFFFFFFFFFFFFFFFFFFF72A
:1056A000FFFFFFFFFFFFFFFFFFFFFFFFFFFFFFFF0A
:1056B000FFF7FFFFFFFFFFF01FFFFFFFFFF7FFFFF9
:1056C000FFFFFFFFFFFFFFFFFFFFFFFFFFFFFFF7F2
:1056D000FFFFFFFFFFFBFFFFFFFFFFF7FFFFFFFFE6
:1056E000FFFFFFFFFFFFFFFFFFFFFFFFFFF7FFFFD2
:1056F000FFFFFFF7FFFFFFFFFFF7FFFFFFFFFFFFCA
:10570000FFFFFFFFFFFFFFFFFFFFFFF7FFFFFFFFB1
:10571000FFF7FFFFFFFFFFF7FFFFFFFFFFFFFFFFA9
:10572000FFFFFFFFFFFFFFFFFFFFFFFFFFFFFFF890
:105730001FFFFFFFFFFFFFFFFFFFFFFFFFFFFFFF59
:10574000FFFFFFFFFFFFFFFFFFFFFFFFFFFFFFFF69
:10575000FFFFFFFFFFFFFFFFFFFFFFFFFFFFFFFF59
:10576000FFFFFFFFFFFFFFFFFFFFFFFFFFFFFFFF49
:10577000FFFFFFFFFFFFFFFFFFFFFFFFFFFFFFFF39
:10597000FFFFFFFFFFFFFFFFFFFFFFFF0000000033
:105980000000000000000000000000000000000017
:105990000000000000000000000000000000000007
:1059A00000000000000000000000000000000000F7
:1059B00000000000000000000000000000000000E7
:105D1000000000000000000000001F000000000064
:105D20000000000000000000000000000000000073
:105D300000000000000000007F8000000000000064
:105D40000000000000000000000000000000000053
:105D5000000000000000FFC0000000000000000084
:105D60000000000000000000000000000000000033
:105D700000000001E0E00000000000000000000062
:105D80000000000000000000000000000000000013
:105D90000001806000000000000000000000000022
:105DA00000000000000000000000000000000003F0
:105DB00000300000000000000000000000000000B3
:105DC00000000000000000000000000000020010C1
:105DD00000000000000000000000000000000000C3
:105DE00000000000000000000000000200100000A1
:105DF00000000000000000000000000000000000A3
:105E00000000000000000000000200100000000080
:105E10000000000000000000000000000000000082
:105E20000000000000000002001000000000000060
:105E30000007FFE00000000000000000000000007C
:105E40000000000000020010000000000000000739
:105E5000FFE0000000000000000000000000000063
:105E60000000000303F00000000000000007FFE056
:105E70000000000000000000000000000000000022
:105E8000000103E0000000000000000610600000B8
:105E90000000000000000000000000000000000002
:105EA00003E0000000000000000610600000000099
:105EB00000000000000000000000000000001F00C3
:105EC000000000000000000610600000000000005C
:105ED0000000000000000000000000007FC0000083
:105EE000000000000006106000000000000000003C
:105EF00000000000000000000000FFC000000000E3
:105F0000000000060060000000000000000000002B
:105F10000000000000000001C0E0000000000000E0
:105F20000000000000000000000000000000000071
:105F300000000000000180200000000000000000C0
:105F4000030000000000000000000000000000004E
:105F5000000000030030000000000000000003000B
:105F6000000000000000000007C00000000000006A
:105F7000000200100000000000000000030000000C
:105F800000000000000007C0000000000000000248
:105F900000100000000000000000030000000000EE
:105FA0000000000007C00000000000000002001018
:105FB00000000000000000000300000000000000DE
:105FC000000007C0000000000000000200100000F8
:105FD00000000000000000000000000000000000C1
:105FE00007C00000000000000003003000000000B7
:105FF000000000007FFF000000000000000007C05C
:10600000000000000000000100600000000000002F
:1060100000007FFF000000000000000007C000003B
:10602000000000000001C0E00000000000000000CF
:106030007FFF000000000000000007C0000000001B
:1060400000000000FFC00000000000000000204031
:10605000000000000000000007C000000000000079
:1060600000007F80000000000000000040200000D1
:1060700000000000000007C0000000000000000059
:106080003F00000000000000000040200000000071
:106090000000000007C00000000C000000001F000E
:1060A0000000000000000000606000000000000030
:1060B000000007C00000001E000000007FC00000BC
:1060C0000000000008007FE0000000000800000061
:1060D00007C00000003F00000000FFC000000000FB
:1060E00000601C003FC0000000001C00000007C052
:1060F0000000007F00000001C0E00000000000C0C0
:1061000004001F80000000003E00000007C00000E7
:1061100000FE00000001802000000000008204005A
:1061200001C0000000007F00000007C0000001FC6B
:10613000000000030030000000000082040023E0A3
:10614000000000003F80000007C0000003F80000CE
:10615000000200100000000000C70C0043E0000037
:1061600000001FC000000000000007F00000000257
:1061700000100000000000FDF800462000000000B4
:106180000FE00000000000000FE00000000200101F
:1061900000000000007DF80044200000000007F02F
:1061A0000000000000001FC00000000200100000FE
:1061B00000000078F00064400000000003F80000D8
:1061C000000000003F8000000003003000000000DD
:1061D000000000007FE00000000001FC0000000063
:1061E00000007F00000000010060000000000000CF
:1061F00000003FE00000000000FE00001FF0000073
:10620000FE0000000001C0E00000000000001C00D3
:106210003FE000000000007F0001FFFF80007C00E5
:1062200000000000FFC00000000000001C00002073
:1062300000000000003F0007FFFFE0003800000002
:1062400000007F800000000000001C000000000033
:106250000000001E003FFFFFFC00100000000000D7
:106260003F0000000000000000007FFF0000000071
:10627000000C007FFFFFFE00000000000000000097
:1062800000000000000000007FFF00000000000090
:1062900001FFFFFFFF000000000000000000000001
:1062A000000000E000007FFF00000000000003FF8E
:1062B000FFFFFFC0000000000003FFF0000000002F
:1062C00000E00C00204000000000000007FFFFFF7E
:1062D000FFE0000000000003FFF00000000000E00D
:1062E0001C0040200000000000001FFFFFFFFFF027
:1062F000000000000003FFF00000000000E0780054
:1063000040200000000000001FFFFFFFFFF800001A
:106310000000000200100000000000E0E0006060EB
:106320000000000000003FFFFFFFFFFC0000000036
:10633000000200100000000000E380007FE0000089
:10634000000000007FFFFFFFFFFE000000000002D2
:1063500000100000000000EE00003FC00000000040
